:100000000C942D010C945E010C945E010C945E0125
:100010000C945E010C945E010C945E010C945E01E4
:100020000C945E010C945E010C945E010C945E01D4
:100030000C945E010C945E010C945E010C945E01C4
:100040000C945E010C945E010C945E010C945E01B4
:100050000C945E010C945E010C945E010C94F80209
:100060000C945E010C945E010C945E010C945E0194
:100070000C945E010C945E010C945E010C945E0184
:100080000C945E010C945E010C945E010C945E0174
:100090000C945E010C945E010C945E010C945E0164
:1000A0000C945E010C945E010C945E010C945E0154
:1000B0000C945E010C945E010C945E010C945E0144
:1000C0000C945E010C945E010C945E010C945E0134
:1000D0000C945E010C945E010C945E010C945E0124
:1000E0000C945E010C9411020C9456020C94520272
:1000F0000C943E020C9426020C943A020C94510289
:100100000C9436020C9417020C941B020C944802B7
:100110000C94B4020C944C020C9444020C94F4021F
:100120000C9483020C941F020C942C020C94730503
:100130000C9423020C9430020000210024002700BC
:100140002A002D00300033000101000004010701E6
:100150000A0100002200250028002B002E0031009B
:10016000340002010000050108010B01000020001D
:100170002300260029002C002F003200000100007F
:10018000030106010901050505050705080808081A
:10019000020202020A0A080804040404010101011F
:1001A000010101010303030303030303040707071A
:1001B0000C0C0C0C0C0C0C0C0202020206060606BF
:1001C000060606060B0B0B0B0B0B0B0B010210208C
:1001D000200808102040102040800201020108047D
:1001E0000201010204081020408080402010080411
:1001F000020180040201804020100804020108046A
:1002000002010102040810204080010204081020AD
:10021000408000000A0B02090C0D0E0807030401C0
:1002200000000000000000000000000000000000CE
:10023000000000000000000000000000000012119B
:10024000100000000000000000000000000000009E
:100250000000000000000000730511241FBECFEF56
:10026000D1E2DEBFCDBF00E00CBF12E0A0E0B2E003
:10027000E0E9FBE000E00BBF02C007900D92AC3656
:10028000B107D9F727E0ACE6B2E001C01D92A43077
:10029000B207E1F711E0CDE2D1E000E006C021971E
:1002A0000109802FFE010E94BE05CC32D10780E0FB
:1002B0000807A9F70E9442030C94C6050C9400009D
:1002C00096E0899FD0011124AB56B94F90967C934C
:1002D0006E935F9791E091969C939197E0910207BE
:1002E000F091030790910107992339F0309751F06D
:1002F000811108C08091B1061994309719F05C966D
:100300008C91FACF0895CF92DF92EF92FF920F93E4
:100310001F9396E0899FF0011124EB56F94F11A22B
:10032000278D30A12130310551F178F0223031058F
:1003300009F451C02330310509F452C01F910F91C7
:10034000FF90EF90DF90CF9008956623B9F361E0BE
:1003500070E00E9460012FB7F8948091910690910F
:100360009206A0919306B09194062FBF8093ED065C
:100370009093EE06A093EF06B093F006DFCF9FB701
:10038000F894C0909106D0909206E0909306F09079
:1003900094069FBF0091ED061091EE062091EF06A6
:1003A0003091F006C01AD10AE20AF30A0091FF0662
:1003B0001091000730E020E00C151D052E053F05CB
:1003C00050F462E070E01F910F91FF90EF90DF908A
:1003D000CF900C9460016111B1CF63E070E0F3CF76
:1003E00070E060E0F0CF8150823108F05AC0E82F11
:1003F000F0E08827E150FE4F8F4F0C94BE051F029E
:100400002302110217021B02510226022C023002A3
:1004100036023A023E024402480251024C025202A3
:100420005602809180008F7780938000089580919C
:1004300080008F7DF9CF80918000877FF5CF84B5D4
:100440008F7784BD089584B58F7DFBCF8091B000F8
:100450008F778093B00008958091B0008F7DF9CFA1
:10046000809190008F778093900008958091900004
:100470008F7DF9CF80919000877FF5CF8091A0008C
:100480008F778093A00008958091A0008F7DF9CF91
:100490008091A000877FF5CF809120018F77809396
:1004A00020010895809120018F7DF9CF8091200156
:1004B000877FF5CFCF93DF93282F30E0F901EE5EF1
:1004C000FD4F8491F901E453FE4FD491F901EA57AD
:1004D000FE4FC491CC23A1F081110E94F301EC2FB7
:1004E000F0E0EE0FFF1FE459FE4FA591B491EC919F
:1004F000ED2381E090E009F480E0DF91CF91089551
:1005000080E090E0FACF862F0C945A021F93CF938D
:10051000DF93282F30E0F901EE5EFD4F8491F90161
:10052000E453FE4FD491F901EA57FE4FC491CC2316
:10053000A9F0162F81110E94F301EC2FF0E0EE0FCD
:10054000FF1FEE5AFE4FA591B4918FB7F894EC912E
:10055000111108C0D095DE23DC938FBFDF91CF91BE
:100560001F910895DE2BF8CF862F642F0C948602FE
:10057000CF93DF9390E0FC01E453FE4F24918A5720
:100580009E4FFC0184918823C9F090E0880F991F49
:10059000FC01E85CFE4FA591B491FC01EE5AFE4FC0
:1005A000C591D49161110DC09FB7F8948C9120959D
:1005B00082238C938881282328839FBFDF91CF914A
:1005C0000895623051F49FB7F8943C91822F809542
:1005D00083238C93E8812E2BEFCF8FB7F894EC9187
:1005E0002E2B2C938FBFEACF862F642F0C94B8024A
:1005F0001F920F920FB60F9211242F933F938F9358
:100600009F93AF93BF938091910690919206A09192
:100610009306B09194063091700223E0230F2D379A
:1006200058F50196A11DB11D20937002809391068B
:1006300090939206A0939306B093940680916C02D7
:1006400090916D02A0916E02B0916F020196A11D72
:10065000B11D80936C0290936D02A0936E02B093D3
:100660006F02BF91AF919F918F913F912F910F900A
:100670000FBE0F901F90189526E8230F0296A11D1C
:10068000B11DD2CF789484B5826084BD84B5816079
:1006900084BD85B5826085BD85B5816085BD80914D
:1006A0006E00816080936E001092810080918100C5
:1006B00082608093810080918100816080938100BD
:1006C000809180008160809380008091B10084607F
:1006D0008093B1008091B00081608093B0008091E0
:1006E000910082608093910080919100816080935D
:1006F0009100809190008160809390008091A10092
:1007000082608093A1008091A10081608093A1000C
:100710008091A00081608093A0008091210182607F
:10072000809321018091210181608093210180913A
:10073000200181608093200180917A008460809301
:100740007A0080917A00826080937A0080917A00AA
:10075000816080937A0080917A00806880937A002B
:100760001092C100CBE5D2E01881229661E0812F82
:100770000E94B80261E0812F0E94860222E0CB36FF
:10078000D20791F709E112E0F801F0800E5F1F4FE8
:1007900061E08F2D0E94B80260E08F2D0E948602DA
:1007A000F2E00B351F0781F741E854E081E792E062
:1007B00061E070E030E020E0F901EE0FFF1FE80F8C
:1007C000F91F718360832F5F3F4F21323105A1F7FD
:1007D0008E5B9F4F4817590769F71092B602109227
:1007E000B5028AE090E09093FE068093FD06412CCE
:1007F000512C3201439460E0862E60E0962E21E079
:10080000209301078FB7F89440919106509192067A
:1008100060919306709194068FBF8091F10690913C
:10082000F206A091F306B091F406481B590B6A0B2F
:100830007B0B8091FD069091FE06B0E0A0E010E0F9
:1008400084179507A607B707C8F11092010791E72B
:10085000C92E92E0D92E0BE512E0F80130800E5F30
:100860001F4F60E0832D0E94860289E1A82E82E05E
:10087000B82EF12CE12CF5018081F2E0AF0EB11C15
:10088000F601EE0DFF1D60810E94860222E0E20E5D
:10089000F11C32E4E316F10471F761E0832D0E944C
:1008A000860252E4C50ED11CC017D107B1F68114DF
:1008B000910409F4A4CF0E940000A1CF8091FB060F
:1008C000181760F4E091F706F091F806E10FF11DBA
:1008D00062E080810E94B8021F5FF0CF312C8091CE
:1008E000FC06381608F064C0032D10E0E091F9060C
:1008F000F091FA06E00FF11F61E080810E94B802DA
:10090000E091F906F091FA06E00FF11F60E08081B6
:100910000E948602D301C201032C04C0880F991FD4
:10092000AA1FBB1F0A94D2F76C017C01E094F094DB
:10093000212C8091FB06281620F5A22CB12CE091E9
:10094000F706F091F806EA0DFB1D80810E945A021D
:10095000F5013496892B61F4EE0FFF1FEB56F94F2A
:10096000808191818C299D29918380832394E1CF7B
:10097000EE0FFF1FEB56F94F808191818E219F2151
:10098000F3CFE091F906F091FA06E00FF11F61E074
:1009900080810E9486028091F9069091FA06080FE4
:1009A000191F60E0F80180810E94B802339497CF4C
:1009B00005E916E0F801878D90A1892B31F4148E9A
:1009C0002FEF3FEF368F258F11A2369636E0E13DAF
:1009D000F30789F7D12C8091FB06D81608F053C095
:1009E000C12CED2CF12CEE0CFF1CC7018356994F46
:1009F0007C012091FC06C21608F043C0F70160811B
:100A000071810C2C02C0769567950A94E2F7D29E0C
:100A1000900111242C0D311DE5E9F6E080E0458DB3
:100A2000568D2417350709F45CC08F5F36968A30DF
:100A3000B1F760FF24C0E5E9F6E090E080E0448D86
:100A4000411118C0E091F506F091F606E20FF31F90
:100A5000408156E0589FF001599FF00D1124EB564C
:100A6000F94F448F368F258F10A2178E61E00E94B8
:100A7000830105C0019636968A30910501F7C3942B
:100A8000B8CFD394A8CF80E0F80191A19111892F1C
:100A90000A5F1F4FF6E0013D1F07B1F79FB7F894BB
:100AA0004091910650919206609193067091940640
:100AB0009FBF4093F1065093F2066093F306709344
:100AC000F406882309F4C1CE8091B606882309F480
:100AD000BCCE8091B4069091B506019709F0B5CED1
:100AE000B6CE6170C4CF1092970610929B061092FA
:100AF0009A0610929C0683E192E09093960680936A
:100B00009506E1EBF6E01082148213821582369688
:100B100086E0ED3EF807B9F783E092E09093F8069F
:100B20008093F70680E092E09093FA068093F906AE
:100B300083E08093FB068093FC0686E092E090932E
:100B4000F6068093F5068AE090E09093FE06809387
:100B5000FD0684EF91E0909300078093FF061092CA
:100B60000307109202071092F1061092F2061092FB
:100B7000F3061092F406109201070895EE0FFF1F7E
:100B8000881F8BBF0790F691E02D1994F894FFCF42
:100B90000605040908073132333435363738390051
:100BA000000000F402B40283020E000F00100011D6
:100BB0000012001300140015001600170018001989
:100BC000001A001B001C001D001E001F0020002139
:100BD00000220023002400250026002700280029E9
:100BE000002A002B002C002D002E00000001000226
:0C0BF000000300040005000600070000E0
:00000001FF
