:100000000C9435010C9466010C9466010C94660105
:100010000C9466010C9466010C9466010C946601C4
:100020000C9466010C9466010C9466010C946601B4
:100030000C9466010C9466010C9466010C946601A4
:100040000C9466010C9466010C9466010C94660194
:100050000C9466010C9466010C9466010C945D0589
:100060000C9466010C9466010C9466010C94660174
:100070000C9466010C9466010C9466010C94660164
:100080000C9466010C9466010C9466010C94660154
:100090000C9466010C9466010C9466010C94660144
:1000A0000C9466010C9466010C9466010C94660134
:1000B0000C9466010C9466010C9466010C94660124
:1000C0000C9466010C9466010C9466010C94660114
:1000D0000C9466010C9466010C9466010C94660104
:1000E0000C9466010C9486020C948B020C946102B1
:1000F0000C9446020C942E050C9429030C9479025E
:100100000C9458020C9465020C9453030C94500206
:100110000C94B8020C9454020C9473020C94E902EF
:100120000C946F020C945B020C946B020C94FB0118
:100130000C9452030C9487020C9481020C947D025F
:100140000C9406090C944C020000210024002700A6
:100150002A002D00300033000101000004010701D6
:100160000A0100002200250028002B002E0031008B
:10017000340002010000050108010B01000020000D
:100180002300260029002C002F003200000100006F
:10019000030106010901050505050705080808080A
:1001A000020202020A0A080804040404010101010F
:1001B000010101010303030303030303040707070A
:1001C0000C0C0C0C0C0C0C0C0202020206060606AF
:1001D000060606060B0B0B0B0B0B0B0B010210207C
:1001E000200808102040102040800201020108046D
:1001F0000201010204081020408080402010080401
:100200000201800402018040201008040201080459
:10021000020101020408102040800102040810209D
:10022000408000000A0B02090C0D0E0807030401B0
:1002300000000000000000000000000000000000BE
:10024000000000000000000000000000000012118B
:10025000100000000000000000000000000000008E
:100260000000000000000000060911241FBECFEFAF
:10027000D1E2DEBFCDBF00E00CBF12E0A0E0B2E0F3
:10028000E4E4F4E100E00BBF02C007900D92AA3352
:10029000B107D9F722E0AAE3B2E001C01D92A13F65
:1002A000B207E1F711E0C5E3D1E000E006C0219715
:1002B0000109802FFE010E94E209C433D10780E0CA
:1002C0000807A9F70E94A7050C94200A0C940000C7
:1002D00096E0899FD0011124A659BD4F90967C933A
:1002E0006E935F9791E091969C939197E091D702DE
:1002F000F091D8029091D602992339F0309751F0BD
:10030000811108C0809186021994309719F05C968B
:100310008C91FACF0895CF92DF92EF92FF920F93D4
:100320001F9396E0899FF0011124E659FD4F11A219
:10033000278D30A12130310551F178F0223031057F
:1003400009F451C02330310509F452C01F910F91B7
:10035000FF90EF90DF90CF9008956623B9F361E0AE
:1003600070E00E9468012FB7F89480916602909126
:100370006702A0916802B09169022FBF8093C20208
:100380009093C302A093C402B093C502DFCF9FB77E
:10039000F894C0906602D0906702E0906802F090F6
:1003A00069029FBF0091C2021091C3022091C40252
:1003B0003091C502C01AD10AE20AF30A0091D402B0
:1003C0001091D50230E020E00C151D052E053F05EB
:1003D00050F462E070E01F910F91FF90EF90DF907A
:1003E000CF900C9468016111B1CF63E070E0F3CF5E
:1003F00070E060E0F0CFAF92BF92CF92DF92EF92C9
:10040000FF920F931F93CF93DF936C017B018B01BE
:10041000040F151FEB015E01AE18BF08C017D1070E
:1004200059F06991D601ED91FC910190F081E02D98
:10043000C6011995892B79F7C501DF91CF911F91DD
:100440000F91FF90EF90DF90CF90BF90AF90089505
:100450008150823108F05AC0E82FF0E08827EC5C28
:10046000FD4F8F4F0C94E2095402580246024C0291
:10047000500286025B02610265026B026F02730228
:1004800079027D028602810287028B0280918000C0
:100490008F77809380000895809180008F7DF9CFC1
:1004A00080918000877FF5CF84B58F7784BD0895D4
:1004B00084B58F7DFBCF8091B0008F778093B000A3
:1004C00008958091B0008F7DF9CF809190008F7753
:1004D000809390000895809190008F7DF9CF809156
:1004E0009000877FF5CF8091A0008F778093A00048
:1004F00008958091A0008F7DF9CF8091A000877F23
:10050000F5CF809120018F7780932001089580910D
:1005100020018F7DF9CF80912001877FF5CFCF9388
:10052000DF93282F30E0F901EE5DFD4F8491F90152
:10053000E452FE4FD491F901EA56FE4FC491CC2308
:10054000A1F081110E942802EC2FF0E0EE0FFF1FB6
:10055000E458FE4FA591B491EC91ED2381E090E039
:1005600009F480E0DF91CF91089580E090E0FACF28
:10057000862F0C948F021F93CF93DF93282F30E0A8
:10058000F901EE5DFD4F8491F901E452FE4FD491E3
:10059000F901EA56FE4FC491CC23A9F0162F811120
:1005A0000E942802EC2FF0E0EE0FFF1FEE59FE4FE5
:1005B000A591B4918FB7F894EC91111108C0D09522
:1005C000DE23DC938FBFDF91CF911F910895DE2B47
:1005D000F8CF862F642F0C94BB02CF93DF9390E06B
:1005E000FC01E452FE4F24918A569E4FFC018491F7
:1005F0008823C9F090E0880F991FFC01E85BFE4F4B
:10060000A591B491FC01EE59FE4FC591D4916111B1
:100610000DC09FB7F8948C91209582238C9388818C
:10062000282328839FBFDF91CF910895623051F432
:100630009FB7F8943C91822F809583238C93E88117
:100640002E2BEFCF8FB7F894EC912E2B2C938FBFDE
:10065000EACF862F642F0C94ED023FB7F894809177
:100660003B0290913C02A0913D02B0913E0226B522
:10067000A89B05C02F3F19F00196A11DB11D3FBFDA
:10068000BA2FA92F982F8827BC01CD01620F711DA9
:10069000811D911D42E0660F771F881F991F4A95A3
:1006A000D1F70895089590E080E008958091640264
:1006B00090916502FC01EE0FFF1FED5AFD4F01976F
:1006C000329797FD03C011821082F9CF80915002BA
:1006D00090915102FC01EE0FFF1FE05CFD4F01976E
:1006E000329797FD03C011821082F9CF10926502F4
:1006F00010926402109251021092500208958F924B
:100700009F92AF92BF920F931F93CF93DF93CDB77A
:10071000DEB7A1970FB6F894DEBF0FBECDBF19A20A
:10072000423008F44AE08E010F5D1F4F842E912C59
:10073000B12CA12CA50194010E94A109E62FB901B9
:10074000CA01EA3044F5E05DD801EE938D01232B18
:10075000242B252B79F790E080E0109769F0FD01BC
:1007600001900020E9F73197AF014A1B5B0BBD01F7
:1007700089ED92E00E94FB01A1960FB6F894DEBFCE
:100780000FBECDBFDF91CF911F910F91BF90AF9062
:100790009F908F900895E95CD7CFFC0101900020D5
:1007A000E9F73197AF01481B590BBC0189ED92E085
:1007B0000C94FB01CF93DF93EC0160E08E810E94EB
:1007C000BB0261E08E810E94BB0260E08E810E94CC
:1007D000BB028BE891E00197F1F7DF91CF9108958B
:1007E000CF92DF92EF92FF920F931F93CF93DF93FD
:1007F0006C017C0187E0E80EF11CD0E0C0E0062F20
:1008000010E0B8010C2E02C0759567950A94E2F7C6
:100810006170F70181917F010E94BB022196C43073
:10082000D10579F7C601DF91CF911F910F91FF900C
:10083000EF90DF90CF900C94DA03CF92DF92EF929B
:10084000FF920F931F93CF93DF93EC01F62E642F4B
:100850008C810E94BB028D818F3F19F060E00E9465
:10086000BB020F2D10E08F8584FF25C06E0187E04D
:10087000C80ED11CF12CE12CB8010E2C02C07595CC
:1008800067950A94E2F76170F60181916F010E9409
:10089000BB02FFEFEF1AFF0A88E0E816F10461F7E8
:1008A000CE01DF91CF911F910F91FF90EF90DF90DC
:1008B000CF900C94DA03B80184E0759567958A951A
:1008C000E1F7CE010E94F0036F2DCE01DF91CF91B1
:1008D0001F910F91FF90EF90DF90CF900C94F00359
:1008E00040E0682F89ED92E00C941D0481E00E94A5
:1008F00070048BE39FE10197F1F70895CF93DF93A5
:10090000813029F09091E80298609093E8028093FA
:10091000EC021092ED0280E48093EE0280E180937D
:10092000EF0280E58093F00261E08091DD020E9499
:10093000ED028091DE028F3F19F061E00E94ED022E
:1009400061E08091DF020E94ED02C9EDD2E09E01DC
:10095000295D32408091E80284FD0BC084E090E084
:1009600021962817390744F461E08E810E94ED0238
:10097000EECF88E090E0F4CF8BE39DE00197F1F7B4
:1009800060E08091DD020E94BB0260E08091DF02A6
:100990000E94BB028091DE028F3F19F060E00E944E
:1009A000BB028091E80284FD34C063E089ED92E0EF
:1009B0000E94F003CBE4D6E4CE010197F1F763E0A7
:1009C00089ED92E00E94F0032197F1F763E089ED51
:1009D00092E00E94F00383E592E00197F1F762E074
:1009E00089ED92E00E94F0038091E80280620E940B
:1009F000700484E08093E9028CE00E9470040E94FD
:100A0000760482E08093EA0286E0DF91CF910C9435
:100A1000700480620E9470048BE496E40197F1F701
:100A20008091E80280620E94700483E592E0019761
:100A3000F1F78091E80280620E947004D5CF909116
:100A4000EC02691710F06FEF690FE62FF0E0E75244
:100A5000FD4F9489890F80680C94700441E00E94D6
:100A60001D0481E090E00895CF92DF92EF92FF9213
:100A70006C01990FEE08FF08F7FE16C041E06DE229
:100A800089ED92E00E941D0466277727CB016C193F
:100A90007D098E099F094AE00E947F030196FF901D
:100AA000EF90DF90CF9008954AE0C701B601FF9024
:100AB000EF90DF90CF900C947F031F920F920FB6B0
:100AC0000F9211242F933F938F939F93AF93BF93D4
:100AD0008091660290916702A0916802B0916902CC
:100AE00030913A0223E0230F2D3758F50196A11DCE
:100AF000B11D20933A028093660290936702A093FF
:100B00006802B093690280913B0290913C02A091EF
:100B10003D02B0913E020196A11DB11D80933B02A2
:100B200090933C02A0933D02B0933E02BF91AF91DF
:100B30009F918F913F912F910F900FBE0F901F901B
:100B4000189526E8230F0296A11DB11DD2CF7894E7
:100B500084B5826084BD84B5816084BD85B58260C2
:100B600085BD85B5816085BD80916E008160809373
:100B70006E001092810080918100826080938100DC
:100B800080918100816080938100809180008160EC
:100B9000809380008091B10084608093B100809147
:100BA000B00081608093B00080919100826080935A
:100BB00091008091910081608093910080919000DC
:100BC0008160809390008091A10082608093A10059
:100BD0008091A10081608093A1008091A00081603C
:100BE0008093A000809121018260809321018091F7
:100BF0002101816080932101809120018160809397
:100C0000200180917A00846080937A0080917A003C
:100C1000826080937A0080917A00816080937A006C
:100C200080917A00806880937A001092C100C4E1BC
:100C3000D2E000E112E088E1E82E82E0F82E60E0E8
:100C400089910E94ED0260E0F80181918F010E947C
:100C5000ED02EC16FD0699F784E00E947E0460E048
:100C60008FE00E941F058FE292E00E94CD03C6EA4A
:100C70002C2EC2E03C2E11E01093D6028FB7F894D0
:100C8000409166025091670260916802709169021A
:100C90008FBF8091C6029091C702A091C802B09107
:100CA000C902481B590B6A0B7B0B8091D2029091B1
:100CB000D302B0E0A0E084179507A607B70708F0B5
:100CC0001AC1C0E08091D002C81760F4E091CC0254
:100CD000F091CD02EC0FF11D62E080810E94ED02E7
:100CE000CF5FF0CF912C8091D102981608F061C0AF
:100CF000E92CF12CE091CE02F091CF02EE0DFF1D18
:100D000061E080810E94ED02E091CE02F091CF027D
:100D1000EE0DFF1D60E080810E94BB0281E090E04B
:100D2000A0E0B0E0092C04C0880F991FAA1FBB1FC8
:100D30000A94D2F75C016C01C094D094812C80910C
:100D4000D0028816F8F4C82DD0E0E091CC02F091E2
:100D5000CD02EC0FFD1F80810E948F022496CC0FE4
:100D6000DD1FC659DD4F892B41F4888199818A297D
:100D70009B29998388838394E2CF888199818C21F0
:100D80009D21F7CFE091CE02F091CF02EE0DFF1D35
:100D900061E080810E94BB028091CE029091CF02DF
:100DA000E80EF91E60E0F70180810E94ED02939445
:100DB0009ACFAAE6CA2EA2E0DA2EE6018F8D98A17C
:100DC000892B31F41C8E8FEF9FEF9E8F8D8F19A290
:100DD00026962C163D0691F7B12C8091D002B816BC
:100DE00008F053C0A12CEB2CF12CEE0CFF1CF701EA
:100DF000EE58FD4F7F012091D102A21608F043C0AA
:100E0000F701608171810A2C02C0769567950A947A
:100E1000E2F7B29E900111242A0D311DEAE6F2E0BC
:100E200080E0458D568D2417350709F4EDC18F5F9D
:100E300036968A30B1F760FF24C0EAE6F2E090E02F
:100E400080E0448D411118C0E091CA02F091CB02BC
:100E5000E20FF31F408156E0589FF001599FF00DBB
:100E60001124E659FD4F448F368F258F10A2178E1F
:100E700061E00E948B0105C0019636968A3091058B
:100E800001F7A394B8CFB394A8CF80E0F60191A165
:100E90009111892FF6E0CF0ED11CCC16DD06B1F7EB
:100EA0009FB7F89440916602509167026091680282
:100EB000709169029FBF4093C6025093C70260932E
:100EC000C8027093C9028823B1F080918B028823F5
:100ED00091F08091890290918A02019761F40091CA
:100EE000860201110BC080E090E0892B09F4C4CE8A
:100EF0000E940000C0CE1092D602F5CF80ED800F88
:100F00008A3008F07AC0809118028823D1F1C0910C
:100F10006402D0916502C830D1059CF580916302CE
:100F2000811102C00E947604FE01EE0FFF1FED5AF0
:100F3000FD4F802F002E000C990BC097918380836A
:100F40002196D0936502C093640260E080E18C1B1F
:100F50000E941F05E3E5EE2EE2E0FE2ED0E0C0E0A9
:100F60008091640290916502C817D90744F4F70193
:100F7000819191917F010E9434052196F1CF1093C8
:100F8000630280915202882309F4ADCF8091500210
:100F900090915102883091050CF0A5CFFC01EE0F25
:100FA000FF1FE05CFD4F202F000F330B2053310952
:100FB000318320830196909351028093500262E026
:100FC000F4E1F81B8F2F0E941F0560E4E62E62E01B
:100FD000F62ED0E0C0E08091500290915102C817E7
:100FE000D90744F4F701819191917F010E94340562
:100FF0002196F1CF1092630276CF802F8D7F8D32B4
:1010000021F086ED800F8230B0F480916302882356
:1010100009F469CF00933F0261E080E00E941F0560
:1010200041E0602F89ED92E00E941D0410921802A9
:101030001093520258CF0D3309F0E0C08091630243
:10104000811151CF63E084E00E941F0581E392E0AB
:101050000E94CD03C0916402D0916502FE01EE0FA3
:10106000FF1FED5AFD4F812C912C54018394C12C0C
:10107000D12C760121973297D7FD11C0A081B18183
:10108000A50194010E94F509C60ED71EE81EF91E9F
:10109000AAE0B0E00E94EA094B015C01EBCFC091ED
:1010A0005002D0915102FE01EE0FFF1FE05CFD4F98
:1010B000412C512C32014394812C912C54012197C5
:1010C0003297D7FD11C0A081B181A30192010E9486
:1010D000F509860E971EA81EB91EAAE0B0E00E9470
:1010E000EA092B013C01EBCF80913F028B32C1F02A
:1010F00034F48A32D1F160E070E0CB0117C08D3258
:1011000069F18F32C1F781149104A104B104A1F1F6
:10111000C701B601A50194010E94C309B90106C027
:10112000C701B601680D791D8A1D9B1DEB01F0E01A
:10113000E0E0209709F44FC0CB016AE070E00E9424
:101140008D09319661157105B9F763E084E18E1B55
:101150000E941F05CE010E94340547C0C701B60199
:10116000681979098A099B09E1CFA7019601C50190
:10117000B4010E947D09DACF63E080E00E941F0580
:1011800083E392E00E94CD030E942D034B015C019A
:1011900080EDC82E87E0D82EE12CF12C0E942D0383
:1011A000681979098A099B09683E73408105910590
:1011B000A8F3F1E0CF1AD108E108F10828EE820E79
:1011C00023E0921EA11CB11CC114D104E104F1045E
:1011D00029F70E94760463E080E10E941F0541E048
:1011E00060E389ED92E00E941D04109318021092B2
:1011F0006302109252020E94560375CE023509F026
:1012000072CE0E947604F1CF617033CE1092DC0270
:101210001092DB0287E292E09093DA028093D90287
:1012200083E18093DD028FEF8093DE0282E1809381
:10123000DF0281E18093E00280E18093E1028FE0B0
:101240008093E2028EE08093E3021092E402109217
:10125000E5021092E6021092E7021092E80281E0A5
:101260000E947E0410926C021092700210926F0223
:10127000109271028DE192E090936B0280936A026A
:10128000E6E8F2E01082148213821582369682E03C
:10129000E23CF807B9F784E192E09093CD028093A5
:1012A000CC0280E192E09093CF028093CE0284E062
:1012B0008093D0028093D10280E092E09093CB02A1
:1012C0008093CA028AE090E09093D3028093D20286
:1012D00084EF91E09093D5028093D4021092D802CB
:1012E0001092D7021092C6021092C7021092C80242
:1012F0001092C9021092D6020895DB018F939F933A
:101300000E94EA09BF91AF91A29F800D911DA39FFA
:10131000900DB29F900D1124089597FB072E16F49F
:10132000009407D077FD09D00E94FD0907FC05D085
:101330003EF4909581959F4F0895709561957F4FEC
:101340000895A1E21A2EAA1BBB1BFD010DC0AA1F06
:10135000BB1FEE1FFF1FA217B307E407F50720F01E
:10136000A21BB30BE40BF50B661F771F881F991F99
:101370001A9469F760957095809590959B01AC01E2
:10138000BD01CF010895052E97FB1EF400940E9425
:10139000DA0957FD07D00E94A10907FC03D04EF4DB
:1013A0000C94DA0950954095309521953F4F4F4F59
:1013B0005F4F089590958095709561957F4F8F4F01
:1013C0009F4F0895EE0FFF1F881F8BBF0790F69168
:1013D000E02D19940E94110AA59F900DB49F900DC5
:1013E000A49F800D911D11240895B7FF0C94EA0964
:1013F0000E94EA09821B930B0895AA1BBB1B51E1B3
:1014000007C0AA1FBB1FA617B70710F0A61BB70B74
:10141000881F991F5A95A9F780959095BC01CD0119
:101420000895A29FB001B39FC001A39F700D811DBD
:101430001124911DB29F700D811D1124911D0895DD
:04144000F894FFCF4E
:1014440052303D2B3132332D3435362A3738392F4B
:1014540008090A0B0001020301000000002903E946
:1014640002B802000000002E05FB015303520330B2
:0A147400003D004572726F72000027
:00000001FF
