:100000000C9417010C9438010C9438010C943801AD
:100010000C9438010C9438010C9438010C9438017C
:100020000C9438010C9438010C9438010C9438016C
:100030000C9438010C9438010C9438010C9438015C
:100040000C9438010C9438010C9438010C9438014C
:100050000C9438010C9438010C9438010C9406026D
:100060000C9438010C9438010C9438010C9438012C
:100070000C9438010C9438010C9438010C9438011C
:100080000C9438010C9438010C9438010C9438010C
:100090000C9438010C9438010C9438010C943801FC
:1000A0000C9438010C9438010C9438010C943801EC
:1000B0000C9438010C9438010C9438010C943801DC
:1000C0000C9438010C9438010C9438010C943801CC
:1000D0000C9438010C9438010C9438010C943801BC
:1000E0000C9438010C94DB010C94BF010C94A80112
:1000F0000C94D5010C94D1010C94CD010C94A40165
:100100000C94C7010C94DF010C94A0010C94C30162
:100110000C9489010C94AF010C94B9010C94AC01BE
:100120000C94B5010C948E0100000A0B02090C0D11
:100130000E0807030401000000000000000000009A
:1001400000000000000000000000000000000000AF
:10015000000000001211100000000000000000006C
:10016000000000000000000000000000000000008F
:100170002200250028002B002E003100340002014F
:100180000000050108010B010000210024002700E8
:100190002A002D0030003300010100000401070196
:1001A0000A010505050507050808080802020202FC
:1001B0000A0A080804040404010101010101010103
:1001C0000303030303030303040707070C0C0C0CCE
:1001D0000C0C0C0C020202020606060606060606B7
:1001E0000B0B0B0B0B0B0B0B010210202008081044
:1001F0002040102040800201020108040201010297
:10020000040810204080804020100804020180046F
:1002100002018040201008040201080402010102CA
:10022000040810204080010204081020408011249E
:100230001FBECFEFD1E2DEBFCDBF00E00CBF14E0A8
:10024000A0E0B2E0E0EBFBE000E00BBF02C00790F3
:100250000D92AC3EB107D9F724E0ACEEB4E001C09A
:100260001D92AF3FB207E1F70E9450020C94D605F1
:100270000C94000090E0FC01E851FE4F24918E5553
:100280009E4FFC018491882399F090E0880F991F7C
:10029000FC01E857FE4FA591B491FC01E259FE4FD5
:1002A000859194918FB7F894EC91E22BEC938FBFEA
:1002B0000895282F30E0F901E85DFE4F9491F9018F
:1002C000E851FE4F44912E553E4FF90124912223CF
:1002D00009F435C0992311F191509231F8F4E92FC6
:1002E000F0E08827E958FE4F8F4F0C94BA05A8011B
:1002F000AC018901A001A4018E01AF01B501B901D2
:10030000BF01C301C701CD01D1018E01D501DB01C0
:10031000DF01809180008F7780938000E22FF0E0F2
:10032000EE0FFF1FE259FE4FA591B4918FB7F894DD
:10033000EC91611148C040954E234C938FBF0895B6
:10034000809180008F7DE8CF80918000877FE4CF0F
:1003500084B58F7784BDE2CF84B58F7DFBCF80914C
:10036000B0008F778093B000D9CF8091B0008F7D9F
:10037000F9CF809190008F7780939000CFCF8091BC
:1003800090008F7DF9CF80919000877FF5CF80918D
:10039000A0008F778093A000C1CF8091A0008F7DB7
:1003A000F9CF8091A000877FF5CF809120018F77D2
:1003B00080932001B3CF809120018F7DF9CF809170
:1003C0002001877FF5CF4E2BB8CFEF92FF920F938E
:1003D0001F93CF93DF937C0108E814E0D0E0C0E0E6
:1003E000F80180810E5F1F4F61E0EC16FD0609F0F9
:1003F00060E00E9459012196C830D10589F7DF914C
:10040000CF911F910F91FF90EF9008951F920F923F
:100410000FB60F9211242F933F938F939F93AF9317
:10042000BF938091F1049091F204A091F304B091F4
:10043000F4043091F00423E0230F2D3758F5019692
:10044000A11DB11D2093F0048093F1049093F20458
:10045000A093F304B093F4048091EC049091ED0424
:10046000A091EE04B091EF040196A11DB11D8093FF
:10047000EC049093ED04A093EE04B093EF04BF91CD
:10048000AF919F918F913F912F910F900FBE0F9041
:100490001F90189526E8230F0296A11DB11DD2CFFB
:1004A000CF93DF9300D01F92CDB7DEB7789484B599
:1004B000826084BD84B5816084BD85B5826085BD60
:1004C00085B5816085BD80916E00816080936E00EE
:1004D00010928100809181008260809381008091E0
:1004E0008100816080938100809180008160809391
:1004F00080008091B10084608093B1008091B00051
:1005000081608093B000809191008260809391001F
:100510008091910081608093910080919000816032
:10052000809390008091A10082608093A1008091CF
:10053000A10081608093A1008091A00081608093E0
:10054000A00080912101826080932101809121018E
:10055000816080932101809120018160809320013E
:1005600080917A00846080937A0080917A00826022
:1005700080937A0080917A00816080937A008091E4
:100580007A00806880937A001092C10008E814E035
:100590001A830983E981FA8110813296FA83E9830B
:1005A000812F0E943A0160E0812F0E945901098148
:1005B0001A810859144071F70AEA14E01A83098372
:1005C000E981FA8110813296FA83E983812F0E94B2
:1005D0003A0161E0812F0E94590109811A810C5E64
:1005E000144071F72FB7F8948091F1049091F204C0
:1005F000A091F304B091F4042FBF4091FB045091FB
:10060000FC046091FD047091FE048C019D01041BAB
:10061000150B260B370BB901A801483E5340610565
:100620007105A0F18093FB049093FC04A093FD045A
:10063000B093FE048091F9049091FA0401966CE362
:1006400070E00E94A6059093FA048093F904892B28
:10065000E9F42091F5043091F6048091F70490912B
:10066000F80401966CE370E00E94A6059093F804EC
:100670008093F704892B51F4C901019668E170E079
:100680000E94A6059093F6048093F504E090F90487
:10069000F090FA040091F7041091F8041C830B8386
:1006A0000091F5041091F6040A3011050CF4A9C16B
:1006B000C8016AE070E00E94A6056150710988E4F3
:1006C00094E06930710538F4660F771FFB01E85636
:1006D000FB4F808191812C01D12CC12CC6010E943D
:1006E000E5011201B12CA12CF101219131911F01E1
:1006F0003A8329838AEA682E84E0782E912C812C13
:1007000061E0A814B90429F489819A81892B09F040
:1007100060E0F3018081F2E06F0E711C0E945901CC
:100720002FEF821A920A34E08316910449F78BE97D
:100730009FE00197F1F78FEFA81AB80A94E0A91685
:10074000B10491F6EFEFCE1ADE0AF8E04F0E511C1D
:1007500028E0C216D10409F0C1CFC8016AE070E0F8
:100760000E94A60501978930910508F455C188E4D7
:1007700094E02C01D12CC12CC6010E94E50112018C
:10078000B12CA12CF101219131911F013A832983D0
:10079000A4EB6A2EA4E07A2E912C812C61E08A14BD
:1007A0009B0429F489819A81892B09F060E0F30187
:1007B0008081F2E06F0E711C0E9459012FEF821AA6
:1007C000920A34E08316910449F78BE99FE0019780
:1007D000F1F78FEFA81AB80A94E0A916B10491F6C0
:1007E000EFEFCE1ADE0AF8E04F0E511C28E0C216D9
:1007F000D10409F0C1CF8B819C810A970CF414C1FC
:100800008B819C816AE070E00E94A60561507109AD
:1008100088E494E06930710538F4660F771FFB01B6
:10082000E856FB4F808191812C01D12CC12CC6014F
:100830000E94E5011201B12CA12CF101219131910D
:100840001F013A832983E2EC6E2EE4E07E2E912C88
:10085000812C61E0A814B90429F489819A81892B3B
:1008600009F060E0F3018081F2E06F0E711C0E94DC
:1008700059012FEF821A920A34E08316910449F746
:100880008BE99FE00197F1F78FEFA81AB80A94E07F
:10089000A916B10491F6EFEFCE1ADE0AF8E04F0E7A
:1008A000511C28E0C216D10409F0C1CF8B819C8174
:1008B000181619060CF023C18B819C816AE070E048
:1008C0000E94A60501978930910508F41DC188E4AE
:1008D00094E02C01D12CC12CC6010E94E50112012B
:1008E000B12CA12CF101219131911F013A8329836F
:1008F0006CEC662E64E0762E912C812C61E08A14DB
:100900009B0429F489819A81892B09F060E0F30125
:100910008081F2E06F0E711C0E9459012FEF821A44
:10092000920A34E08316910449F78BE99FE001971E
:10093000F1F78FEFA81AB80A94E0A916B10491F65E
:10094000EFEFCE1ADE0AF8E04F0E511C28E0C21677
:10095000D10409F0C1CF3AE0E316F1040CF4DCC095
:10096000C7016AE070E00E94A60561507109693014
:10097000710508F4DCC088E494E09A83898310E070
:1009800000E04BE9242E4FE0342EC8010E94E5011F
:1009900069807A80D12CC12CF301419051903F01A4
:1009A0003AED832E34E0932EB12CA12C61E0CA14D1
:1009B000DB0421F44114510409F060E0F40180816A
:1009C000F2E08F0E911C0E9459012FEFA21AB20A79
:1009D00034E0A316B10451F7C1010197F1F78FEF8D
:1009E000C81AD80A94E0C916D104B1F60F5F1F4F98
:1009F000E981FA813896FA83E9830830110529F6EE
:100A000022C0101611060CF4A8CE2B813C812A308E
:100A100031050CF0F5CE0CC0880F991FFC01E8568B
:100A2000FB4F80819181A5CE101611060CF4E8CE03
:100A3000EB81FC811E161F060CF43ECF9AE0E916EE
:100A4000F1040CF08DCFC7016AE070E00E94A605AA
:100A500001978930910508F074C0880F991FFC0137
:100A6000E856FB4F008111811A83098310E000E0F2
:100A70009BE9492E9FE0592EC8010E94E50189801B
:100A80009A80F12CE12CF401619071904F0184EE79
:100A9000A82E84E0B82ED12CC12C61E0EC14FD040A
:100AA00021F46114710409F060E0F5018081F2E045
:100AB000AF0EB11C0E9459012FEFC21AD20A34E0C6
:100AC000C316D10451F7C2010197F1F78FEFE81A6D
:100AD000F80A94E0E916F104B1F60F5F1F4FE981BF
:100AE000FA813896FA83E9830830110529F680E007
:100AF00090E0892B09F476CD0E94000073CD10168A
:100B000011060CF4D9CE9ACF880F991FFC01E85634
:100B1000FB4F80819181DDCEEB81FC811E161F068B
:100B20000CF41ECF101611060CF41ACF8CCF660FE2
:100B3000771FFB01E856FB4F008111811A8309835F
:100B40001ECF28E434E03A83298390CF97FB072E09
:100B500016F4009407D077FD09D00E94C20507FC67
:100B600005D03EF4909581959F4F089570956195BD
:100B70007F4F0895EE0FFF1F881F8BBF0790F691E0
:100B8000E02D1994AA1BBB1B51E107C0AA1FBB1F74
:100B9000A617B70710F0A61BB70B881F991F5A9509
:100BA000A9F780959095BC01CD010895F894FFCFE9
:100BB000010001000100010001000000000001002F
:100BC000010000000000010001000100010001001F
:100BD0000000000000000100000000000000010013
:100BE0000000000000000100010001000100010000
:100BF00001000100010001000100000000000100EF
:100C000001000000000001000100010001000100DE
:100C100001000000000001000100000000000100D0
:100C200001000000000001000100010001000100BE
:100C300001000100010001000100000000000100AE
:100C400001000000000001000000000000000100A1
:100C50000000000000000100000000000000010092
:100C60000000000000000100000000000000010082
:100C7000010001000100010001000000000000006F
:100C8000010000000000000001000100010001005F
:100C90000100000000000100010000000000010050
:100CA000010000000000010001000100010000003F
:100CB000010001000100010001000000000000002F
:100CC000010000000000000001000100010001001F
:100CD0000000000000000100000000000000010012
:100CE0000000000000000100010001000100000000
:100CF00000000000000000000100000000000100F2
:100D000001000000000001000100000000000100DF
:100D100001000100010001000000000000000100CE
:100D200000000000000001000000000000000100C1
:100D300000000000000001000100010001000100AE
:100D400000000000000001000000000000000100A1
:100D5000010001000100010000000000000001008E
:100D60000000000000000100000000000000010081
:100D7000010001000100010001000100010001006B
:100D80000000000000000100000000000000010061
:100D9000010001000100000001000000000000004F
:100DA0000100000000000000010000000000000041
:100DB000010001000100010000000000000001002E
:100DC0000000000000000100000000000000010021
:100DD0000000000000000100000000000000010011
:100DE0000000000000000100000000000000010001
:100DF00000000000000001000100010001000100EE
:100E000001000000000001000100000000000100DE
:100E100001000000000001000100000000000100CE
:100E200001000000000001000100000000000100BE
:100E300001000100010001000000010002000300A8
:100E400004000500060007000804C80388034803DF
:100E50000003C0028002400200020E000F001000DA
:100E600011001200130014001500160017001800DE
:100E700019001A001B001C001D001E001F0020008E
:100E8000210022002300240025002600270028003E
:0C0E900029002A002B002C002D002E0051
:00000001FF
