:100000000C9424010C9445010C9445010C94450179
:100010000C9445010C9445010C9445010C94450148
:100020000C9445010C9445010C9445010C94450138
:100030000C9445010C9445010C9445010C94450128
:100040000C9445010C9445010C9445010C94450118
:100050000C9445010C9445010C9445010C948902C3
:100060000C9445010C9445010C9445010C944501F8
:100070000C9445010C9445010C9445010C944501E8
:100080000C9445010C9445010C9445010C944501D8
:100090000C9445010C9445010C9445010C944501C8
:1000A0000C9445010C9445010C9445010C944501B8
:1000B0000C9445010C9445010C9445010C944501A8
:1000C0000C9445010C9445010C9445010C94450198
:1000D0000C9445010C9445010C9445010C94450188
:1000E0000C9445010C947A010C9465010C948A01DE
:1000F0000C948E010C949C010C9477010C946F016C
:100100000C9473010C946B010C94A6010C94920155
:100110000C94A0010C94AA010C9484010C949801F5
:100120000C94A5010C9480010000210024002700FC
:100130002A002D00300033000101000004010701F6
:100140000A0100002200250028002B002E003100AB
:10015000340002010000050108010B01000020002D
:100160002300260029002C002F003200000100008F
:10017000030106010901050505050705080808082A
:10018000020202020A0A080804040404010101012F
:10019000010101010303030303030303040707072A
:1001A0000C0C0C0C0C0C0C0C0202020206060606CF
:1001B000060606060B0B0B0B0B0B0B0B010210209C
:1001C000200808102040102040800201020108048D
:1001D0000201010204081020408080402010080421
:1001E000020180040201804020100804020108047A
:1001F00002010102040810204080010204081020BE
:10020000408000000A0B02090C0D0E0807030401D0
:1002100000000000000000000000000000000000DE
:1002200000000000000000000000000000001211AB
:1002300010000000000000000000000000000000AE
:10024000000000000000000011241FBECFEFD1E22B
:10025000DEBFCDBF00E00CBF12E0A0E0B2E0E0EDF9
:10026000F8E000E00BBF02C007900D92AA35B1077D
:10027000D9F722E0AAE5B2E001C01D92A336B20789
:10028000E1F70E94D3020C9466040C9400008150A4
:10029000823108F05AC0E82FF0E08827ED5AFE4F6F
:1002A0008F4F0C944A047301770165016B016F0154
:1002B000A5017A01800184018A018E0192019801D1
:1002C0009C01A501A001A601AA01809180008F7761
:1002D000809380000895809180008F7DF9CF809178
:1002E0008000877FF5CF84B58F7784BD089584B56E
:1002F0008F7DFBCF8091B0008F778093B000089501
:100300008091B0008F7DF9CF809190008F7780939E
:1003100090000895809190008F7DF9CF809190009A
:10032000877FF5CF8091A0008F778093A0000895FC
:100330008091A0008F7DF9CF8091A000877FF5CFBD
:10034000809120018F778093200108958091200172
:100350008F7DF9CF80912001877FF5CF1F93CF93B9
:10036000DF93282F30E0F901EE5FFD4F8491F90112
:10037000E454FE4FD491F901EA58FE4FC491CC23C6
:10038000A9F0162F81110E944701EC2FF0E0EE0F2B
:10039000FF1FEE5BFE4FA591B4918FB7F894EC91DF
:1003A000111108C0D095DE23DC938FBFDF91CF9170
:1003B0001F910895DE2BF8CFCF93DF9390E0FC01DF
:1003C000E454FE4F24918A589E4FFC018491882367
:1003D000D1F090E0880F991FFC01E85DFE4FA591D8
:1003E000B491FC01EE5BFE4FC591D491623071F483
:1003F0009FB7F8943C91822F809583238C93E8815A
:100400002E2B28839FBFDF91CF9108958FB7F8944B
:10041000EC912E2B2C938FBFF6CF5F926F927F9231
:100420008F929F92AF92BF92CF92DF92EF92FF9204
:100430000F931F93CF93DF9300D000D000D01F9273
:10044000CDB7DEB75B01542E2AE0E0E0F2E0DE013A
:10045000119601900D922A95E1F76B014B01F12C59
:10046000E12C66246394712C6C0E7D1E680E791E3F
:10047000F301008110E0F4018081F2E08F0E911C05
:10048000B8010E2C02C0759567950A94E2F7617069
:100490000E94AE018FEFE81AF80A98E0E916F1041D
:1004A00039F7F12CE12CE7E0EE16F10439F555208F
:1004B00029F161E0F50186850E94AE01FFEFEF1A98
:1004C000FF0A82E0C80ED11C98E0E916F10459F742
:1004D0002A960FB6F894DEBF0FBECDBFDF91CF9145
:1004E0001F910F91FF90EF90DF90CF90BF90AF9052
:1004F0009F908F907F906F905F900895B8010E2C21
:1005000002C0759567950A94E2F76170F6018081E3
:10051000D3CF1F920F920FB60F9211242F933F93B8
:100520008F939F93AF93BF9380915F0290916002EE
:10053000A0916102B091620230915E0223E0230F2C
:100540002D3758F50196A11DB11D20935E028093B1
:100550005F0290936002A0936102B0936202809167
:100560005A0290915B02A0915C02B0915D020196EB
:10057000A11DB11D80935A0290935B02A0935C026F
:10058000B0935D02BF91AF919F918F913F912F9159
:100590000F900FBE0F901F90189526E8230F02961C
:1005A000A11DB11DD2CFCF93DF93CDB7DEB7A097FA
:1005B0000FB6F894DEBF0FBECDBF789484B58260CD
:1005C00084BD84B5816084BD85B5826085BD85B5F7
:1005D000816085BD80916E00816080936E00109275
:1005E00081008091810082608093810080918100F0
:1005F0008160809381008091800081608093800081
:100600008091B10084608093B1008091B0008160DE
:100610008093B000809191008260809391008091DE
:10062000910081608093910080919000816080931F
:1006300090008091A10082608093A1008091A10030
:1006400081608093A1008091A00081608093A000D0
:10065000809121018260809321018091210181603C
:1006600080932101809120018160809320018091FD
:100670007A00846080937A0080917A00826080930F
:100680007A0080917A00816080937A0080917A006C
:10069000806880937A001092C1000AE112E0F801AC
:1006A00080810E5F1F4F62E00E94DC01F2E00A329F
:1006B0001F07A9F70AE212E03AE3C32E32E0D32E75
:1006C0004AE4E42E42E0F42EF801B0800E5F1F4FA2
:1006D00061E08B2D0E94DC0160E08B2D0E94AE0159
:1006E000F601B080F2E0CF0ED11C61E08B2D0E94AC
:1006F000DC0160E08B2D0E94AE01F701B080F2E0DA
:10070000EF0EF11C61E08B2D0E94DC0160E08B2D6F
:100710000E94AE0182E00A331807B1F6CC24C394DC
:10072000D12C5E019FE0A90EB11C2E01E9E04E0E16
:10073000511C2AE0622E712C7E01F1E1EF0EF11CBA
:100740000AE112E0F801219131918F013327F9017B
:10075000EE5FFD4F8491F901E454FE4F2490F901BE
:10076000EA58FE4F349031106DC0F701D182C0823B
:10077000F2E0EF0EF11C82E00A32180719F78989BE
:100780009A899A8389838E010F5F1F4FCE0143960A
:10079000D801B8014D915D91FC0121913191CF01BA
:1007A0004217530709F05EC011961C921E92AA15BB
:1007B000BB0581F730E020E090E080E0F801419156
:1007C00051918F014130510539F4D901A65FBD4FD8
:1007D0004D915C91840F951F2E5F3F4F2031310565
:1007E00069F7FB01B3010E9436048193CB01E41544
:1007F000F505C1F7898141E06AE472E0082E000C3A
:10080000990B0E940D028A8140E06AE372E0082E93
:10081000000C990B0E940D028B8140E06AE272E0AD
:10082000082E000C990B0E940D020FB6F894DEBF43
:100830000FBECDBF80E090E0892B09F47DCF0E94F0
:1008400000007ACF81110E944701E32DF0E0EE0F06
:10085000FF1FE45AFE4FA591B491EC912E2209F4AA
:1008600084CF86CF1196DC92CE92A1CF97FB072E34
:1008700016F4009407D077FD09D00E94520407FCBB
:1008800005D03EF4909581959F4F089570956195A0
:100890007F4F0895EE0FFF1F881F8BBF0790F691C3
:1008A000E02D1994AA1BBB1B51E107C0AA1FBB1F57
:1008B000A617B70710F0A61BB70B881F991F5A95EC
:1008C000A9F780959095BC01CD010895F894FFCFCC
:1008D0003F065B4F666D7D077F6F80004000200004
:1008E00010000800040002000100000001000200E6
:1008F0000300040005000600070045004400430013
:100900004200410040003F003E003D003C003B00F3
:100910003A00390038003700360015001400130083
:0A0920001200110010000F000E007D
:00000001FF
