:100000000C942E010C944F010C944F010C944F0151
:100010000C944F010C944F010C944F010C944F0120
:100020000C944F010C944F010C944F010C944F0110
:100030000C944F010C944F010C944F010C944F0100
:100040000C944F010C944F010C944F010C944F01F0
:100050000C944F010C944F010C944F010C94170415
:100060000C944F010C944F010C944F010C944F01D0
:100070000C944F010C944F010C944F010C944F01C0
:100080000C944F010C944F010C944F010C944F01B0
:100090000C944F010C944F010C944F010C944F01A0
:1000A0000C944F010C944F010C944F010C944F0190
:1000B0000C944F010C944F010C944F010C944F0180
:1000C0000C944F010C944F010C944F010C944F0170
:1000D0000C944F010C944F010C944F010C944F0160
:1000E0000C944F010C947D010C944A050C94570517
:1000F0000C948A010C94A6010C94B0010C94980104
:100100000C94AF010C9484010C9452050C944F058F
:100110000C94A2010C946F010C949C010C94750139
:100120000C9494010C94AA010C94B4010C944D0508
:100130000C9481010C948E010C9479010000210033
:10014000240027002A002D003000330001010000A8
:10015000040107010A0100002200250028002B00ED
:100160002E003100340002010000050108010B01DE
:10017000000020002300260029002C002F00320060
:100180000001000003010601090105050505070539
:1001900008080808020202020A0A08080404040403
:1001A000010101010101010103030303030303032F
:1001B000040707070C0C0C0C0C0C0C0C02020202BE
:1001C00006060606060606060B0B0B0B0B0B0B0BA7
:1001D0000102102020080810204010204080020159
:1001E000020108040201010204081020408080403E
:1001F000201008040201800402018040201008043D
:1002000002010804020101020408102040800102DA
:1002100004081020408000000A0B02090C0D0E0893
:1002200007030401000000000000000000000000BF
:1002300000000000000000000000000000000000BE
:10024000000012111000000000000000000000007B
:1002500000000000000000000000000011241FBE8C
:10026000CFEFD1E2DEBFCDBF00E00CBF12E0A0E0D7
:10027000B2E0E8E1FBE000E00BBF02C007900D92A6
:10028000AA36B107D9F722E0AAE6B2E001C01D9272
:10029000A337B207E1F70E9461040C948A050C941D
:1002A00000008150823108F05AC0E82FF0E0882722
:1002B000E35AFE4F8F4F0C946E057D0181016F0153
:1002C00075017901AF0184018A018E0194019801C1
:1002D0009C01A201A601AF01AA01B001B401809165
:1002E00080008F77809380000895809180008F7DBB
:1002F000F9CF80918000877FF5CF84B58F7784BD5B
:10030000089584B58F7DFBCF8091B0008F77809367
:10031000B00008958091B0008F7DF9CF809190005A
:100320008F77809390000895809190008F7DF9CF12
:1003300080919000877FF5CF8091A0008F77809388
:10034000A00008958091A0008F7DF9CF8091A0003A
:10035000877FF5CF809120018F77809320010895CA
:10036000809120018F7DF9CF80912001877FF5CF8B
:10037000CF93DF93282F30E0F901EA5EFD4F84919F
:10038000F901E053FE4FD491F901E657FE4FC491B5
:10039000CC23A1F081110E945101EC2FF0E0EE0F6F
:1003A000FF1FE059FE4FA591B491EC91ED2381E040
:1003B00090E009F480E0DF91CF91089580E090E033
:1003C000FACF1F93CF93DF93282F30E0F901EA5E35
:1003D000FD4F8491F901E053FE4FD491F901E657A6
:1003E000FE4FC491CC23A9F0162F81110E94510118
:1003F000EC2FF0E0EE0FFF1FEA5AFE4FA591B491EB
:100400008FB7F894EC91111108C0D095DE23DC93DE
:100410008FBFDF91CF911F910895DE2BF8CFCF933F
:10042000DF9390E0FC01E053FE4F249186579E4FEE
:10043000FC0184918823D1F090E0880F991FFC0182
:10044000E45CFE4FA591B491FC01EA5AFE4FC591C0
:10045000D491623071F49FB7F8943C91822F8095CB
:1004600083238C93E8812E2B28839FBFDF91CF912C
:1004700008958FB7F894EC912E2B2C938FBFF6CF65
:100480004F925F926F927F928F929F92AF92BF92A4
:10049000CF92DF92EF92FF920F931F93CF93DF9350
:1004A000CDB7DEB760970FB6F894DEBF0FBECDBFF5
:1004B00020E1E0E0F2E0DE01119601900D922A9534
:1004C000E1F77C014AE3842E42E0942E5AE2A52E05
:1004D00052E0B52E6AE1C62E62E0D62E3C0143E022
:1004E000640E711CF70121917F01F4018081F2E01B
:1004F0008F0E911CF5014080F2E0AF0EB11CF601A9
:100500005080F2E0CF0ED11C90ED920F9A3070F037
:100510009FEB920F963008F44FC060E00E94E1011B
:1005200060E0842D0E94E10160E028C0022E000CF2
:10053000330B2053310941E050E04C0F5D1F240F75
:10054000351FF901008110E0B80196E075956795B7
:100550009A95E1F761700E94E101B80125E0759577
:1005600067952A95E1F76170842D0E94E10134E0DE
:10057000159507953A95E1F7602F6170852D0E94DA
:10058000E1016E147F0409F0ADCF60960FB6F894C8
:10059000DEBF0FBECDBFDF91CF911F910F91FF90B6
:1005A000EF90DF90CF90BF90AF909F908F907F9013
:1005B0006F905F904F900895022E000C330B2753DD
:1005C0003109B9CF4F925F926F927F928F929F9233
:1005D000AF92BF92CF92DF92EF92FF920F931F9351
:1005E000CF93DF9300D000D000D01F92CDB7DEB7FD
:1005F000FC0164E670E00E945A055B012AE030E0ED
:10060000B9010E945A053B01CF01B9010E945A0568
:100610002C019AE0E0E1F2E0DE01119601900D92EA
:100620009A95E1F78AE3882E82E0982E9AE2C92E05
:1006300092E0D92E2AE1E22E22E0F22E10E000E034
:1006400081E090E08C0F9D1FA80EB91E680E791EE8
:10065000480E591EF4018081F2E08F0E911CF501C5
:10066000608170E0002E02C0759567950A94E2F7EC
:1006700061700E94E101F6018081F2E0CF0ED11C91
:10068000F301608170E0002E02C0759567950A94B1
:10069000E2F761700E94E101F7018081F2E0EF0E64
:1006A000F11CF201608170E0002E02C07595679523
:1006B0000A94E2F761700E94E1010F5F1F4F08305A
:1006C000110541F62A960FB6F894DEBF0FBECDBFD6
:1006D000DF91CF911F910F91FF90EF90DF90CF901E
:1006E000BF90AF909F908F907F906F905F904F9052
:1006F0000895CF92DF92EF92FF920F931F93CF93C3
:10070000DF93CDB7DEB7A0970FB6F894DEBF0FBE6C
:10071000CDBF0AE412E0CE0101967C01CC24C39443
:10072000D12CD8018C910E5F1F4F0E94B801892BEC
:1007300009F04EC0F701D182C082B2E0EB0EF11C8D
:10074000E2E00A351E0769F789819A819A8B898BC5
:100750007E01F1E1EF0EF11CCE0103969E01215EB8
:100760003F4FF70141E050E001911191DC016D91A3
:100770007D91CD010617170779F511821082E217D6
:10078000F30791F730E020E090E080E0F70141913D
:1007900051917F014130510539F4F901E65AFD4F7D
:1007A00040815181840F951F2E5F3F4F20313105CD
:1007B00069F7A0960FB6F894DEBF0FBECDBFDF91EC
:1007C000CF911F910F91FF90EF90DF90CF90089500
:1007D000D7011D921C92B1CF51834083D0CFEF92AD
:1007E000FF920F931F93CF93DF93CAE4D2E08AE581
:1007F000E82E82E0F82E10E000E0888122960E9428
:10080000B801892B29F4F70180819181080F191F04
:10081000F2E0EF0EF11C82E0CA35D80771F7C8018B
:10082000DF91CF911F910F91FF90EF9008951F924C
:100830000F920FB60F9211242F933F938F939F9394
:10084000AF93BF9380916F0290917002A09171025B
:10085000B091720230916E0223E0230F2D3758F5CC
:100860000196A11DB11D20936E0280936F0290939B
:100870007002A0937102B093720280916A0290910B
:100880006B02A0916C02B0916D020196A11DB11D89
:1008900080936A0290936B02A0936C02B0936D02F6
:1008A000BF91AF919F918F913F912F910F900FBE6C
:1008B0000F901F90189526E8230F0296A11DB11DD9
:1008C000D2CF789484B5826084BD84B5816084BDC4
:1008D00085B5826085BD85B5816085BD80916E00DE
:1008E000816080936E00109281008091810082600F
:1008F000809381008091810081608093810080914C
:1009000080008160809380008091B100846080933A
:10091000B1008091B00081608093B000809191001F
:10092000826080939100809191008160809391001A
:10093000809190008160809390008091A1008260FE
:100940008093A1008091A10081608093A10080919B
:10095000A00081608093A00080912101826080933B
:1009600021018091210181608093210180912001EA
:1009700081608093200180917A00846080937A0066
:1009800080917A00826080937A0080917A00816001
:1009900080937A0080917A00806880937A00109228
:1009A000C100CAE4D2E08881229662E00E940F0270
:1009B00082E0CA35D807B9F762E08FE10E940F02E2
:1009C00062E081E20E940F0262E083E20E940F0275
:1009D000CAE3D2E08AE2E82E82E0F82E0AE112E0D1
:1009E000D880229661E08D2D0E940F0260E08D2D4F
:1009F0000E94E101F701D080F2E0EF0EF11C61E00E
:100A00008D2D0E940F0260E08D2D0E94E101F80102
:100A1000D0800E5F1F4F61E08D2D0E940F0260E0BD
:100A20008D2D0E94E101F2E0CA34DF07C9F600E033
:100A300010E08FE10E94B801C4E0D0E0892B11F0F2
:100A4000D0E0C0E081E20E94B801892B09F422962F
:100A500083E20E94B801892B09F42196FE013197A7
:100A6000E730F10568F48827E75CFA4F8F4F0C9464
:100A70006E054A054D05520557054F0557054F05AB
:100A80000E94EF030E94E2020115110591F20E94FB
:100A90000000CFCF0E947903F5CF0E94EF0390E0D2
:100AA00080E002C00E9479030E944002EDCF90E0F6
:100AB00080E0E8CF97FB072E16F4009407D077FD6F
:100AC00009D00E94760507FC05D03EF490958195EB
:100AD0009F4F0895709561957F4F0895EE0FFF1F0A
:100AE000881F8BBF0790F691E02D1994AA1BBB1BA2
:100AF00051E107C0AA1FBB1FA617B70710F0A61B1E
:100B0000B70B881F991F5A95A9F780959095BC013E
:080B1000CD010895F894FFCF18
:100B18007E306D79335B5F707F7B771F4E3D4F472B
:100B28003F065B4F666D7D077F6F1500140013004D
:100B38001200110010000F000E003D003C003B00A9
:100B48003A003900380037003600450044004300B9
:100B58004200410040003F003E000000010002004A
:100B68000300040005000600070080004000200084
:0A0B78001000080004000200010054
:00000001FF
