:100000000C9438010C9459010C9459010C94590129
:100010000C9459010C9459010C9459010C945901F8
:100020000C9459010C9459010C9459010C945901E8
:100030000C9459010C9459010C9459010C945901D8
:100040000C9459010C9459010C9459010C945901C8
:100050000C9459010C9459010C9459010C94E00230
:100060000C9459010C9459010C9459010C945901A8
:100070000C9459010C9459010C9459010C94590198
:100080000C9459010C9459010C9459010C94590188
:100090000C9459010C9459010C9459010C94590178
:1000A0000C9459010C9459010C9459010C94590168
:1000B0000C9459010C9459010C9459010C94590158
:1000C0000C9459010C9459010C9459010C94590148
:1000D0000C9459010C9459010C9459010C94590138
:1000E0000C9459010C948E010C9479010C94D1025A
:1000F0000C949E010C94A2010C94AB020C949902F6
:100100000C94D7020C94B0010C94CF020C948B0188
:100110000C9483010C9487010C946D020C947F0164
:100120000C94BA010C9439020C9487020C94A60129
:100130000C94B4010C9457020C94BE010C949801D9
:100140000C94AC010C94B9010C9494010C94B90278
:1001500000002100240027002A002D003000330079
:1001600001010000040107010A010000220025002E
:1001700028002B002E003100340002010000050190
:1001800008010B01000020002300260029002C009C
:100190002F003200000100000301060109010505DE
:1001A0000505070508080808020202020A0A0808ED
:1001B000040404040101010101010101030303031B
:1001C00003030303040707070C0C0C0C0C0C0C0CAA
:1001D0000202020206060606060606060B0B0B0BBB
:1001E0000B0B0B0B010210202008081020401020E0
:1001F00040800201020108040201010204081020EB
:1002000040808040201008040201800402018040E8
:100210002010080402010804020101020408102051
:100220004080010204081020408000000A0B0209EF
:100230000C0D0E0807030401000000000000000080
:1002400000000000000000000000000000000000AE
:10025000000000000000121110000000000000006B
:10026000000000000000000000000000000000008E
:1002700011241FBECFEFD1E2DEBFCDBF00E00CBF27
:1002800012E0A0E0B2E0EAE1F9E000E00BBF02C05A
:1002900007900D92A035B107D9F722E0A0E5B2E0B2
:1002A00001C01D92A935B207E1F70E942A030C9400
:1002B0008B040C9400008150823108F05AC0E82F62
:1002C000F0E08827E959FE4F8F4F0C946F048701A7
:1002D0008B0179017F018301B9018E01940198019D
:1002E0009E01A201A601AC01B001B901B401BA019D
:1002F000BE01809180008F77809380000895809167
:1003000080008F7DF9CF80918000877FF5CF84B505
:100310008F7784BD089584B58F7DFBCF8091B00029
:100320008F778093B00008958091B0008F7DF9CFD2
:10033000809190008F778093900008958091900035
:100340008F7DF9CF80919000877FF5CF8091A000BD
:100350008F778093A00008958091A0008F7DF9CFC2
:100360008091A000877FF5CF809120018F778093C7
:1003700020010895809120018F7DF9CF8091200187
:10038000877FF5CF1F93CF93DF93282F30E0F901BC
:10039000E65DFD4F8491F901EC51FE4FD491F901D6
:1003A000E256FE4FC491CC23A9F0162F81110E9472
:1003B0005B01EC2FF0E0EE0FFF1FE659FE4FA59119
:1003C000B4918FB7F894EC91111108C0D095DE2349
:1003D000DC938FBFDF91CF911F910895DE2BF8CF73
:1003E000CF93DF9390E0FC01EC51FE4F24918256B5
:1003F0009E4FFC0184918823D1F090E0880F991FD3
:10040000FC01E05BFE4FA591B491FC01E659FE4F63
:10041000C591D491623071F49FB7F8943C91822FCA
:10042000809583238C93E8812E2B28839FBFDF91B7
:10043000CF9108958FB7F894EC912E2B2C938FBF0A
:10044000F6CFCF93DF938A30910508F0B6C0EB0169
:10045000FC018827E15DFD4F8F4F0C946F0439023A
:1004600057026D0287029902AB02B902CF02D10294
:10047000D70261E088810E94C20161E08A810E9406
:10048000C20161E08C810E94C20161E08E810E9404
:10049000C20161E088850E94C20161E08A850E94F4
:1004A000C20160E08C85DF91CF910C94C20160E0C5
:1004B00088810E94C20161E08A810E94C20161E0DC
:1004C0008C810E94C20160E08E810E94C20160E0C6
:1004D00088850E94C20160E0E1CF61E088810E94CE
:1004E000C20161E08A810E94C20160E08C810E94A9
:1004F000C20161E08E810E94C20161E088850E9494
:10050000C20160E08A850E94C20161E0CBCF61E058
:1005100088810E94C20161E08A810E94C20161E07B
:100520008C810E94C20161E08E810E94C20160E064
:10053000E5CF60E088810E94C20161E08A810E946B
:10054000C20161E08C810E94C20160E08E810E9444
:10055000C20160E01FC061E088810E94C20160E0CA
:100560008A810E94C20161E08C810E94C20161E027
:10057000EDCF61E088810E94C20160E08A810E9423
:10058000C20161E08C810E94C20161E08E810E9403
:10059000C20161E088850E94C20161E0B3CF61E0E1
:1005A00087CF61E088810E94C20161E0E7CF61E00E
:1005B00088810E94C20161E0D3CFDF91CF9108957D
:1005C0001F920F920FB60F9211242F933F938F9388
:1005D0009F93AF93BF938091550290915602A09143
:1005E0005702B09158023091540223E0230F2D3767
:1005F00058F50196A11DB11D209354028093550218
:1006000090935602A0935702B093580280915002E3
:1006100090915102A0915202B09153020196A11DF6
:10062000B11D8093500290935102A0935202B09357
:100630005302BF91AF919F918F913F912F910F9056
:100640000FBE0F901F90189526E8230F0296A11D4C
:10065000B11DD2CFCF93DF9300D000D01F921F9255
:10066000CDB7DEB7789484B5826084BD84B58160EF
:1006700084BD85B5826085BD85B5816085BD80916D
:100680006E00816080936E001092810080918100E5
:1006900082608093810080918100816080938100DD
:1006A000809180008160809380008091B10084609F
:1006B0008093B1008091B00081608093B000809100
:1006C000910082608093910080919100816080937D
:1006D0009100809190008160809390008091A100B2
:1006E00082608093A1008091A10081608093A1002D
:1006F0008091A00081608093A000809121018260A0
:10070000809321018091210181608093210180915A
:10071000200181608093200180917A008460809321
:100720007A0080917A00826080937A0080917A00CA
:10073000816080937A0080917A00806880937A004B
:100740001092C10000E112E0F80180810E5F1F4F9E
:1007500062E00E94F001F2E000321F07A9F700E218
:1007600012E050E3C52E52E0D52E60E4E62E62E0A2
:10077000F62EF801B0800E5F1F4F61E08B2D0E94B6
:10078000F00160E08B2D0E94C201F601B080F2E022
:10079000CF0ED11C61E08B2D0E94F00160E08B2D0B
:1007A0000E94C201F701B080F2E0EF0EF11C61E09F
:1007B0008B2D0E94F00160E08B2D0E94C20182E02F
:1007C00000331807B1F661E08EE00E94C2012E01ED
:1007D000E9E04E0E511C3AE0632E712C40E0A42E4D
:1007E00040E0B42E90E0C92E92E0D92E20E1E22E16
:1007F00022E0F22E10E000E0F701219131917F011B
:100800003327F901E65DFD4F8491F901EC51FE4F6C
:100810003490F901E256FE4F249021103CC0F601BD
:1008200080819181080F191FF2E0CF0ED11C80E268
:10083000E81682E0F80601F7FE013196C801B3011F
:100840000E945B0481938B014E165F06B9F7898184
:1008500060E472E0082E000C990B0E9421028A814C
:1008600060E372E0082E000C990B0E9421028B813C
:1008700060E272E0082E000C990B0E9421020FB674
:10088000F894DEBF0FBECDBFA114B10409F4AACF06
:100890000E940000A7CF81110E945B01E22DF0E0D1
:1008A000EE0FFF1FEC57FE4FA591B491EC913E2245
:1008B00009F4B5CFB9CF97FB072E16F4009407D0F3
:1008C00077FD09D00E94770407FC05D03EF490958F
:1008D00081959F4F0895709561957F4F0895EE0F14
:1008E000FF1F881F8BBF0790F691E02D1994AA1B5C
:1008F000BB1B51E107C0AA1FBB1FA617B70710F00B
:10090000A61BB70B881F991F5A95A9F7809590953C
:0A091000BC01CD010895F894FFCF5B
:10091A0001000200040008001000200040008000CE
:10092A0000000100020003000400050006000700A1
:10093A004500440043004200410040003F003E00A1
:10094A003D003C003B003A003900380037003600D1
:10095A001500140013001200110010000F000E0001
:00000001FF
