:100000000C9417010C9438010C9438010C943801AD
:100010000C9438010C9438010C9438010C9438017C
:100020000C9438010C9438010C9438010C9438016C
:100030000C9438010C9438010C9438010C9438015C
:100040000C9438010C9438010C9438010C9438014C
:100050000C9438010C9438010C9438010C94CE02A5
:100060000C9438010C9438010C9438010C9438012C
:100070000C9438010C9438010C9438010C9438011C
:100080000C9438010C9438010C9438010C9438010C
:100090000C9438010C9438010C9438010C943801FC
:1000A0000C9438010C9438010C9438010C943801EC
:1000B0000C9438010C9438010C9438010C943801DC
:1000C0000C9438010C9438010C9438010C943801CC
:1000D0000C9438010C9438010C9438010C943801BC
:1000E0000C9438010C94B9010C94BF010C94AC0130
:1000F0000C9489010C94A8010C94A4010C94D101D6
:100100000C94C3010C94B5010C94DF010C94AF0165
:100110000C948E010C94DB010C94CD010C94A00185
:100120000C94D5010C94C70100000A0B02090C0DB8
:100130000E0807030401000000000000000000009A
:1001400000000000000000000000000000000000AF
:10015000000000001211100000000000000000006C
:10016000000000000000000000000000000000008F
:100170002200250028002B002E003100340002014F
:100180000000050108010B010000210024002700E8
:100190002A002D0030003300010100000401070196
:1001A0000A010505050507050808080802020202FC
:1001B0000A0A080804040404010101010101010103
:1001C0000303030303030303040707070C0C0C0CCE
:1001D0000C0C0C0C020202020606060606060606B7
:1001E0000B0B0B0B0B0B0B0B010210202008081044
:1001F0002040102040800201020108040201010297
:10020000040810204080804020100804020180046F
:1002100002018040201008040201080402010102CA
:10022000040810204080010204081020408011249E
:100230001FBECFEFD1E2DEBFCDBF00E00CBF12E0AA
:10024000A0E0B2E0EAE2FAE000E00BBF02C00790F3
:100250000D92A232B107D9F722E0A2E2B2E001C0CA
:100260001D92A133B207E1F70E9418030C94130505
:100270000C94000090E0FC01E851FE4F24918E5553
:100280009E4FFC018491882399F090E0880F991F7C
:10029000FC01E857FE4FA591B491FC01E259FE4FD5
:1002A000859194918FB7F894EC91E22BEC938FBFEA
:1002B0000895282F30E0F901E85DFE4F9491F9018F
:1002C000E851FE4F44912E553E4FF90124912223CF
:1002D00009F435C0992311F191509231F8F4E92FC6
:1002E000F0E08827E958FE4F8F4F0C94F004A801E6
:1002F000AC018901A001A4018E01AF01B501B901D2
:10030000BF01C301C701CD01D1018E01D501DB01C0
:10031000DF01809180008F7780938000E22FF0E0F2
:10032000EE0FFF1FE259FE4FA591B4918FB7F894DD
:10033000EC91611148C040954E234C938FBF0895B6
:10034000809180008F7DE8CF80918000877FE4CF0F
:1003500084B58F7784BDE2CF84B58F7DFBCF80914C
:10036000B0008F778093B000D9CF8091B0008F7D9F
:10037000F9CF809190008F7780939000CFCF8091BC
:1003800090008F7DF9CF80919000877FF5CF80918D
:10039000A0008F778093A000C1CF8091A0008F7DB7
:1003A000F9CF8091A000877FF5CF809120018F77D2
:1003B00080932001B3CF809120018F7DF9CF809170
:1003C0002001877FF5CF4E2BB8CF3FB7F8948091AF
:1003D000270290912802A0912902B0912A0226B505
:1003E000A89B05C02F3F19F00196A11DB11D3FBF6D
:1003F000BA2FA92F982F8827BC01CD01620F711D3C
:10040000811D911D42E0660F771F881F991F4A9535
:10041000D1F70895CF93DF93EC01CB0164E070E056
:100420000E94DC0481309105E1F02CF4892B79F0F5
:10043000DF91CF91089582309105D1F00397C1F7F4
:1004400061E088810E94590160E0888106C061E016
:100450008E810E94590160E08E81DF91CF910C94D2
:10046000590161E08C810E94590160E08C81F5CFD7
:1004700061E08A810E94590160E08A81EECFEF92AB
:10048000FF920F931F93CF93C82F7B018A0161E0E6
:100490000E94590124EB30E0D7010E94F804980132
:1004A00021503109032E000C440B550B0E948C0483
:1004B000D9012CE434E00E94F80424EB30E040E061
:1004C00050E00E948C042C573C4F4F4F5F4F22301E
:1004D000310548F0220F331F220F331F25503109F9
:1004E000C9010197F1F760E08C2FCF911F910F9117
:1004F000FF90EF900C9459010F931F93CF93DF93CC
:10050000082F162FD42FC8E06D2F661F6627661F91
:10051000802F0E945901DD0F61E0812F0E94590157
:1005200060E0812F0E945901C15071F7DF91CF9196
:100530001F910F910895FF920F931F93CF93DF9315
:10054000D62FC42F122F6AE070E00E94DC0400E076
:100550006A30710520F4685E7D4FFB010081F12C4B
:100560008A30910520F4885E9D4FFC01F08060E0A8
:100570008C2F0E9459014F2D612F8D2F0E947C02DC
:10058000402F612F8D2F0E947C0261E08C2FDF9124
:10059000CF911F910F91FF900C9459011F920F92D0
:1005A0000FB60F9211242F933F938F939F93AF9386
:1005B000BF938091230290912402A0912502B091D3
:1005C00026023091220223E0230F2D3758F50196A1
:1005D000A11DB11D20932202809323029093240237
:1005E000A0932502B09326028091270290912802C1
:1005F000A0912902B0912A020196A11DB11D8093FC
:10060000270290932802A0932902B0932A02BF9157
:10061000AF919F918F913F912F910F900FBE0F90AF
:100620001F90189526E8230F0296A11DB11DD2CF69
:10063000789484B5826084BD84B5816084BD85B5BD
:10064000826085BD85B5816085BD80916E008160C9
:1006500080936E001092810080918100826080936F
:100660008100809181008160809381008091800071
:100670008160809380008091B10084608093B1009C
:100680008091B00081608093B00080919100826081
:10069000809391008091910081608093910080917E
:1006A00090008160809390008091A100826080938F
:1006B000A1008091A10081608093A1008091A000A1
:1006C00081608093A000809121018260809321014C
:1006D00080912101816080932101809120018160BE
:1006E0008093200180917A00846080937A008091C9
:1006F0007A00826080937A0080917A008160809392
:100700007A0080917A00806880937A001092C1000C
:100710008EE30E943A018BE30E943A0186E30E9435
:100720003A018FE30E943A018CE30E943A0187E389
:100730000E943A0180E40E943A018DE30E943A014E
:1007400088E30E943A01C0E1D2E038E0E32E32E0D3
:10075000F32E00E012E0888122960E943A01F70110
:100760008081F2E0EF0EF11C0E943A01F8018081D5
:100770000E5F1F4F0E943A01F2E0C831DF0759F7C0
:100780008AE00E943A019BE9C92E9FE0D92E20E021
:10079000222E20E0322EC0912F02D0913002CC3395
:1007A000D1050CF04AC02196D0933002C0932F029D
:1007B0000E94E5014B015C0184E6482E512C612C1E
:1007C000712C0E94E501681979098A099B09683E24
:1007D000734081059105A8F321E0421A5108610890
:1007E000710888EE880E83E0981EA11CB11C41148C
:1007F00051046104710429F7EC97F9F480912D02FA
:1008000090912E02019690932E0280932D021092C9
:10081000300210922F02C4E1D0E061E08AE00E9431
:100820005901C6010197F1F760E08AE00E94590181
:10083000C6010197F1F7219781F780912D029091E0
:100840002E02CC9769F480912B0290912C02019694
:1008500090932C0280932B0210922E0210922D0264
:1008600080912B0290912C020B9721F410922C0274
:1008700010922B02E0902F02F09030024CE350E0F7
:10088000B70185E090E00E943F0200912D02109197
:100890002E024CE350E0B80186E090E00E943F0257
:1008A000C0912B02D0912C024CE050E0BE0187E0B9
:1008B00090E00E943F0228E330E047E350E066E327
:1008C00070E0CE010E949B022DE330E04CE350E04B
:1008D0006BE370E0C8010E949B0220E430E04FE32C
:1008E00050E06EE370E0C7010E949B02B70180E117
:1008F00092E00E940A02B80188E092E00E940A0297
:10090000BE0180E092E00E940A022114310409F441
:1009100042CF0E9400003FCF052E97FB1EF40094AB
:100920000E94A30457FD07D00E94AB0407FC03D02C
:100930004EF40C94A30450954095309521953F4F6B
:100940004F4F5F4F089590958095709561957F4FBB
:100950008F4F9F4F0895A1E21A2EAA1BBB1BFD01CA
:100960000DC0AA1FBB1FEE1FFF1FA217B307E4078E
:10097000F50720F0A21BB30BE40BF50B661F771FE6
:10098000881F991F1A9469F76095709580959095C6
:100990009B01AC01BD01CF010895A29FB001B39F9F
:1009A000C001A39F700D811D1124911DB29F700D78
:1009B000811D1124911D089597FB072E16F40094B4
:1009C00007D077FD09D00E94FF0407FC05D03EF454
:1009D000909581959F4F0895709561957F4F0895EB
:1009E000EE0FFF1F881F8BBF0790F691E02D199423
:1009F0000E94CD04B7FF0895821B930B0895AA1B94
:100A0000BB1B51E107C0AA1FBB1FA617B70710F0F9
:100A1000A61BB70B881F991F5A95A9F7809590952B
:0A0A2000BC01CD010895F894FFCF4A
:100A2A001F00210023002500270029002B002D008C
:100A3A002F003100330035003F065B4F666D7D079E
:020A4A007F6FBC
:00000001FF
