:100000000C942E010C945F010C945F010C945F0121
:100010000C945F010C945F010C945F010C945F01E0
:100020000C945F010C945F010C945F010C945F01D0
:100030000C945F010C945F010C945F010C945F01C0
:100040000C945F010C945F010C945F010C945F01B0
:100050000C945F010C945F010C945F010C946D068D
:100060000C945F010C9437060C940D060C945F0100
:100070000C945F010C945F010C945F010C945F0180
:100080000C945F010C945F010C945F010C945F0170
:100090000C945F010C945F010C945F010C945F0160
:1000A0000C945F010C945F010C945F010C945F0150
:1000B0000C945F010C945F010C945F010C945F0140
:1000C0000C945F010C945F010C945F010C945F0130
:1000D0000C945F010C945F010C945F010C945F0120
:1000E0000C945F010C942C030C9480010C94FF027F
:1000F0000C94FB020C9403030C94DF010C94360364
:100100000C9430030C9407060C94A3010C94280360
:100110000C94E4020C947D030C940A030C940703E2
:100120000C947C030C9487020C9422030C9414030B
:100130000C942C020C94E9020C941E030C941A03E8
:100140000C94B1010C9410030C943A030C948F019D
:100150000C94B70600000A0B02090C0D0E080703E9
:10016000040100000000000000000000000000008A
:10017000000000000000000000000000000000007F
:10018000121110000000000000000000000000003C
:100190000000000000000000000000002200250018
:1001A00028002B002E003100340002010000050160
:1001B00008010B0100002100240027002A002D0067
:1001C0003000330001010000040107010A010505A8
:1001D0000505070508080808020202020A0A0808BD
:1001E00004040404010101010101010103030303EB
:1001F00003030303040707070C0C0C0C0C0C0C0C7A
:100200000202020206060606060606060B0B0B0B8A
:100210000B0B0B0B010210202008081020401020AF
:1002200040800201020108040201010204081020BA
:1002300040808040201008040201800402018040B8
:100240002010080402010804020101020408102021
:1002500040800102040810204080B70611241FBE10
:10026000CFEFD1E2DEBFCDBF00E00CBF12E0A0E0D7
:10027000B2E0E2EEF4E100E00BBF02C007900D92A5
:10028000A035B107D9F723E0A0E5B2E001C01D9287
:10029000AE30B207E1F711E0CEE2D1E000E006C0F7
:1002A00021970109802FFE010E94670ACD32D107F4
:1002B00080E00807A9F70E9401070C946F0A0C94CC
:1002C000000090E0FC01EC5EFD4F249182539E4FB4
:1002D000FC018491882399F090E0880F991FFC011C
:1002E000EC54FE4FA591B491FC01E656FE4F85916A
:1002F00094918FB7F894EC91E22BEC938FBF089513
:10030000FC01538D448D252F30E0842F90E0821B1B
:10031000930B541710F0CF96089501970895FC01A0
:10032000918D828D981761F0A28DAE0FBF2FB11DF8
:100330005D968C91928D9F5F9F73928F90E0089550
:100340008FEF9FEF0895FC01918D828D981731F00A
:10035000828DE80FF11D858D90E008958FEF9FEF5E
:100360000895FC01918D228D892F90E0805C9F4F34
:10037000821B91098F7399270895FC01A48DA80F02
:10038000B92FB11DA35ABF4F2C91848D90E00196D7
:100390008F739927848FA689B7892C93A089B189F7
:1003A0008C91837080648C93938D848D981306C098
:1003B0000288F389E02D80818F7D80830895EF92FC
:1003C000FF920F931F93CF93DF93EC0181E0888F0F
:1003D0009B8D8C8D98131AC0E889F989808185FFDF
:1003E00015C09FB7F894EE89FF896083E889F98981
:1003F00080818370806480839FBF81E090E0DF9183
:10040000CF911F910F91FF90EF900895F62E0B8DD5
:1004100010E00F5F1F4F0F731127E02E8C8D8E1190
:100420000CC00FB607FCFACFE889F989808185FFF7
:10043000F5CFCE010E94BD01F1CFEB8DEC0FFD2F6A
:10044000F11DE35AFF4FF0829FB7F8940B8FEA89B2
:10045000FB8980818062CFCFCF93DF93EC01888DC1
:100460008823B9F0AA89BB89E889F9898C9185FD2F
:1004700003C0808186FD0DC00FB607FCF7CF8C91BD
:1004800085FFF2CF808185FFEDCFCE010E94BD01B7
:10049000E9CFDF91CF91089589E592E00E94B10103
:1004A00021E0892B09F420E0822F089580E090E07C
:1004B000892B29F00E944C0281110E94000080E0EB
:1004C00090E0892B49F080E090E0892B29F00E9490
:1004D000000081110E94000080E090E0892B49F02B
:1004E00080E090E0892B29F00E94000081110E9499
:1004F000000080E090E0892B49F080E090E0892BBB
:1005000029F00E94000081110C9400000895AF9220
:10051000BF92CF92DF92EF92FF920F931F93CF93F0
:10052000DF936C017B018B01040F151FEB015E0152
:10053000AE18BF08C017D10759F06991D601ED91E7
:10054000FC910190F081E02DC6011995892B79F776
:10055000C501DF91CF911F910F91FF90EF90DF9038
:10056000CF90BF90AF900895282F30E0F901EC5A5A
:10057000FE4F9491F901EC5EFD4F449122533E4FA2
:10058000F9012491222309F435C0992311F19150E6
:100590009231F8F4E92FF0E08827EE52FD4F8F4FAB
:1005A0000C94670A03030703E402FB02FF02E9025B
:1005B0000A03100314031A031E03220328032C0347
:1005C000E902300336033A03809180008F778093ED
:1005D0008000E22FF0E0EE0FFF1FE656FE4FA591E0
:1005E000B4918FB7F894EC91611148C040954E23B7
:1005F0004C938FBF0895809180008F7DE8CF8091CC
:100600008000877FE4CF84B58F7784BDE2CF84B547
:100610008F7DFBCF8091B0008F778093B000D9CFD2
:100620008091B0008F7DF9CF809190008F7780937B
:100630009000CFCF809190008F7DF9CF8091900076
:10064000877FF5CF8091A0008F778093A000C1CFE6
:100650008091A0008F7DF9CF8091A000877FF5CF9A
:10066000809120018F7780932001B3CF809120016A
:100670008F7DF9CF80912001877FF5CF4E2BB8CFAA
:1006800090917B00977F90937B008653806480934A
:100690007C0080917A00806480937A0080917A0057
:1006A00086FDFCCF809178009091790008953FB746
:1006B000F8948091550290915602A0915702B09102
:1006C000580226B5A89B05C02F3F19F00196A11D21
:1006D000B11D3FBFBA2FA92F982F8827BC01CD018C
:1006E000620F711D811D911D42E0660F771F881FEB
:1006F000991F4A95D1F70895089590E080E00895F4
:10070000FB0101900020E9F73197AF01461B570B21
:10071000DC01ED91FC910280F381E02D19948F9220
:100720009F92AF92BF92EF92FF920F931F93CF933E
:10073000DF93CDB7DEB7A1970FB6F894DEBF0FBE3B
:10074000CDBF7C01FA01CB0119A2223008F42AE0C6
:100750008E010F5D1F4F822E912CB12CA12CBF0159
:10076000A50194010E94450AF901CA016A300CF5FD
:10077000605DD8016E938D01232B242B252B79F7F7
:1007800090E080E0109721F0BD01C7010E94800336
:10079000A1960FB6F894DEBF0FBECDBFDF91CF910B
:1007A0001F910F91FF90EF90BF90AF909F908F900F
:1007B0000895695CDECF2F923F924F925F926F92C5
:1007C0007F928F929F92AF92BF92CF92DF92EF92E1
:1007D000FF921F93CF93DF93EC016A017B01722E8E
:1007E000AB019601CB01B6010E94400A6EE172E0B6
:1007F000811126C046015701E894B7F82FEF3FEF6B
:100800004FE75FE7C501B4010E94400A81110CC0A7
:100810002FEF3FEF4FE75FE7C501B4010E94760875
:1008200062E272E0181664F02FEF3FEF4FE75FE4EB
:10083000C701B6010E94CE091816B4F466E272E050
:10084000CE01DF91CF911F91FF90EF90DF90CF907D
:10085000BF90AF909F908F907F906F905F904F90E0
:100860003F902F900C9480032FEF3FEF4FE75FEC0A
:10087000C701B6010E94760887FDE0CF20E030E096
:10088000A901C701B6010E947608312C212C87FFEF
:100890000DC0E881F9810190F081E02D6DE2CE017B
:1008A00019951C01F7FAF094F7F8F09410E060E065
:1008B00070E080E09FE3711641F020E030E040E21C
:1008C00051E40E947B081F5FF6CFA70196010E94AA
:1008D0000A082B013C010E94ED084B015C012AE053
:1008E000BC01A401CE010E948F037C01E20CF31C29
:1008F0001123E1F1C501B4010E941C099B01AC0167
:10090000C301B2010E9409084B015C01E881F98131
:100910000190F081E02D6EE2CE011995E80EF91EEE
:10092000115020F120E030E040E251E4C501B40173
:100930000E94D3092B013C010E94ED084B01B12C10
:10094000A12C2AE0B501A401CE010E948F03E80E7C
:10095000F91EC501B4010E941C099B01AC01C30131
:10096000B2010E9409084B015C01DACFC701DF9197
:10097000CF911F91FF90EF90DF90CF90BF90AF90FD
:100980009F908F907F906F905F904F903F902F90AF
:100990000895CF93DF93EC0160E08E810E94B40252
:1009A00061E08E810E94B40260E08E810E94B402F8
:1009B0008BE891E00197F1F7DF91CF910895CF9205
:1009C000DF92EF92FF920F931F93CF93DF936C010F
:1009D0007C0187E0E80EF11CD0E0C0E0062F10E0BB
:1009E000B8010C2E02C0759567950A94E2F7617004
:1009F000F70181917F010E94B4022196C430D10594
:100A000079F7C601DF91CF911F910F91FF90EF9081
:100A1000DF90CF900C94C904CF92DF92EF92FF92B7
:100A20000F931F93CF93DF93EC01F62E642F8C81ED
:100A30000E94B4028D818F3F19F060E00E94B402E1
:100A40000F2D10E08F8584FF25C06E0187E0C80E52
:100A5000D11CF12CE12CB8010E2C02C075956795C4
:100A60000A94E2F76170F60181916F010E94B4026D
:100A7000FFEFEF1AFF0A88E0E816F10461F7CE01F4
:100A8000DF91CF911F910F91FF90EF90DF90CF906A
:100A90000C94C904B80184E0759567958A95E1F7CF
:100AA000CE010E94DF046F2DCE01DF91CF911F9107
:100AB0000F91FF90EF90DF90CF900C94DF0440E017
:100AC000682F86EF92E00C940C05CF93DF93823071
:100AD00029F490910503986090930503809309038E
:100AE00010920A0380E480930B0380E180930C034F
:100AF00080E580930D038091FA020E94610180914C
:100B0000FB028F3F11F00E9461018091FC020E9464
:100B10006101C6EFD2E09E01265F3240809105035D
:100B200084FD0AC084E090E02196281739073CF440
:100B30008E810E946101EFCF88E090E0F5CF8BE3DA
:100B40009DE00197F1F760E08091FA020E94B40203
:100B500060E08091FC020E94B4028091FB028F3F12
:100B600019F060E00E94B4028091050384FD39C051
:100B700063E086EF92E00E94DF04CBE4D6E4CE018E
:100B80000197F1F763E086EF92E00E94DF0421977E
:100B9000F1F763E086EF92E00E94DF0483E592E0E4
:100BA0000197F1F762E086EF92E00E94DF04809106
:100BB000050380620E945F0584E0809306038CE059
:100BC0000E945F0581E00E945F058BE39FE1019732
:100BD000F1F782E08093070386E0DF91CF910C94D8
:100BE0005F0580620E945F058BE496E40197F1F750
:100BF0008091050380620E945F0583E592E0019782
:100C0000F1F78091050380620E945F05D0CF41E03B
:100C10000E940C0581E090E008951F920F920FB69C
:100C20000F9211240BB60F922F933F934F935F9324
:100C30006F937F938F939F93AF93BF93EF93FF93A4
:100C400089E592E00E94BD01FF91EF91BF91AF91C4
:100C50009F918F917F916F915F914F913F912F91D4
:100C60000F900BBE0F900FBE0F901F9018951F9204
:100C70000F920FB60F9211240BB60F922F938F93F2
:100C80009F93EF93FF93E0916902F0916A02808154
:100C9000E0916F02F091700282FD1DC09081809101
:100CA00072028F5F8F7320917302821741F0E0917F
:100CB0007202F0E0E75AFD4F958F80937202FF9128
:100CC000EF919F918F912F910F900BBE0F900FBEC0
:100CD0000F901F9018958081F2CF1F920F920FB640
:100CE0000F9211242F933F938F939F93AF93BF93B2
:100CF0008091510290915202A0915302B0915402FE
:100D00003091500223E0230F2D3758F50196A11D95
:100D1000B11D209350028093510290935202A093F0
:100D20005302B09354028091550290915602A091C3
:100D30005702B09158020196A11DB11D8093550232
:100D400090935602A0935702B0935802BF91AF916F
:100D50009F918F913F912F910F900FBE0F901F90F9
:100D6000189526E8230F0296A11DB11DD2CFE9E503
:100D7000F2E01382128288EE93E0A0E0B0E0848378
:100D80009583A683B78384E092E09183808385EC8A
:100D900090E09587848784EC90E09787868780EC45
:100DA00090E0918B808B81EC90E0938B828B82EC36
:100DB00090E0958B848B86EC90E0978B868B118EE0
:100DC000128E138E148EE6EFF2E01382128286E109
:100DD00092E0918380838CE084838FEF85838BE026
:100DE000868383E0878381E0808789E0818784E050
:100DF00082871386148615861686178681E00C94E2
:100E00006505789484B5826084BD84B5816084BDB5
:100E100085B5826085BD85B5816085BD80916E0098
:100E2000816080936E0010928100809181008260C9
:100E30008093810080918100816080938100809106
:100E400080008160809380008091B10084608093F5
:100E5000B1008091B00081608093B00080919100DA
:100E600082608093910080919100816080939100D5
:100E7000809190008160809390008091A1008260B9
:100E80008093A1008091A10081608093A100809156
:100E9000A00081608093A0008091210182608093F6
:100EA00021018091210181608093210180912001A5
:100EB00081608093200180917A00846080937A0021
:100EC00080917A00826080937A0080917A008160BC
:100ED00080937A0080917A00806880937A001092E3
:100EE000C10082E00E946505CBE3DFE186E30E945A
:100EF00040037C018DE30E944003B701681B790B1E
:100F0000072E000C880B990B0E941E0928E638EE6C
:100F10004FE95BE30E94D30920E030E048EC52E463
:100F20000E947B086B017C016AE272E089E592E035
:100F30000E94800322E0B701A60189E592E00E94A9
:100F4000DB036AE372E089E592E00E9480036DE3CF
:100F500072E089E592E00E94800381E00E945F05D3
:100F6000CE010197F1F7E1E0809109038111E0E002
:100F7000E195F0E0EA50FD4F848980680E945F05AA
:100F800060E472E086EF92E00E948003E091090342
:100F9000E230E8F5E150F0E0EA50FD4F84898068E6
:100FA0000E945F0522E0B701A60186EF92E00E9451
:100FB000DB036BE372E086EF92E00E9480030E9405
:100FC00057034B015C0188EEC82E83E0D82EE12C3C
:100FD000F12C0E945703681979098A099B09683E18
:100FE000734081059105A8F321E0C21AD108E108F8
:100FF000F10888EE880E83E0981EA11CB11CC11474
:10100000D104E104F10429F70E9456026FCFE1E018
:10101000C2CF5058BB27AA270E9421080C949409DC
:101020000E94860938F00E948D0920F039F49F3F14
:1010300019F426F40C9483090EF4E095E7FB0C9464
:101040007D09E92F0E94A50958F3BA1762077307B3
:101050008407950720F079F4A6F50C94C7090EF4DF
:10106000E0950B2EBA2FA02D0B01B90190010C01B8
:10107000CA01A0011124FF27591B99F0593F50F4D0
:10108000503E68F11A16F040A22F232F342F442728
:10109000585FF3CF469537952795A795F040539520
:1010A000C9F77EF41F16BA0B620B730B840BBAF0F0
:1010B0009150A1F0FF0FBB1F661F771F881FC2F75B
:1010C0000EC0BA0F621F731F841F48F4879577956F
:1010D0006795B795F7959E3F08F0B0CF9395880F29
:1010E00008F09927EE0F9795879508950E94590962
:1010F00008F481E008950E948F080C9494090E94DE
:101100008D0958F00E94860940F029F45F3F29F0CC
:101110000C947D0951110C94C8090C9483090E9408
:10112000A50968F39923B1F3552391F3951B550B4A
:10113000BB27AA2762177307840738F09F5F5F4FAA
:10114000220F331F441FAA1FA9F335D00E2E3AF0E9
:10115000E0E832D091505040E695001CCAF72BD001
:10116000FE2F29D0660F771F881FBB1F2617370752
:101170004807AB07B0E809F0BB0B802DBF01FF2784
:1011800093585F4F3AF09E3F510578F00C947D09DB
:101190000C94C8095F3FE4F3983ED4F386957795A5
:1011A0006795B795F7959F5FC9F7880F911D96953D
:1011B000879597F90895E1E0660F771F881FBB1F99
:1011C000621773078407BA0720F0621B730B840B46
:1011D000BA0BEE1F88F7E09508950E94AD0988F0DC
:1011E0009F5798F0B92F9927B751B0F0E1F0660FEB
:1011F000771F881F991F1AF0BA95C9F714C0B1302C
:1012000091F00E94C709B1E008950C94C709672FB7
:10121000782F8827B85F39F0B93FCCF3869577955A
:101220006795B395D9F73EF4909580957095619543
:101230007F4F8F4F9F4F0895E89409C097FB3EF46E
:1012400090958095709561957F4F8F4F9F4F992313
:10125000A9F0F92F96E9BB279395F6958795779591
:101260006795B795F111F8CFFAF4BB0F11F460FF51
:101270001BC06F5F7F4F8F4F9F4F16C0882311F0A9
:1012800096E911C0772321F09EE8872F762F05C0BD
:10129000662371F096E8862F70E060E02AF09A9558
:1012A000660F771F881FDAF7880F9695879597F94D
:1012B0000895990F0008550FAA0BE0E8FEEF1616E7
:1012C0001706E807F907C0F012161306E407F5073A
:1012D00098F0621B730B840B950B39F40A2661F0AE
:1012E000232B242B252B21F408950A2609F4A14051
:1012F000A6958FEF811D811D089597F99F6780E85E
:1013000070E060E008959FEF80EC089500240A9457
:101310001616170618060906089500240A941216D0
:101320001306140605060895092E0394000C11F403
:10133000882352F0BB0F40F4BF2B11F460FF04C0B0
:101340006F5F7F4F8F4F9F4F089557FD9058440F09
:10135000551F59F05F3F71F04795880F97FB991F14
:1013600061F09F3F79F087950895121613061406D1
:10137000551FF2CF4695F1DF08C01616170618065E
:10138000991FF1CF86957105610508940895E89439
:10139000BB2766277727CB0197F908950E94590943
:1013A00008F48FEF08950E94E6090C9494090E94B6
:1013B000860938F00E948D0920F0952311F00C94D5
:1013C0007D090C94830911240C94C8090E94A50975
:1013D00070F3959FC1F3950F50E0551F629FF00188
:1013E000729FBB27F00DB11D639FAA27F00DB11DA1
:1013F000AA1F649F6627B00DA11D661F829F22272A
:10140000B00DA11D621F739FB00DA11D621F839FB0
:10141000A00D611D221F749F3327A00D611D231F86
:10142000849F600D211D822F762F6A2F11249F57D4
:1014300050409AF0F1F088234AF0EE0FFF1FBB1FD7
:10144000661F771F881F91505040A9F79E3F510596
:1014500080F00C947D090C94C8095F3FE4F3983E3A
:10146000D4F3869577956795B795F795E7959F5F40
:10147000C1F7FE2B880F911D9695879597F90895D2
:101480000E945909880B990B0895A1E21A2EAA1BF4
:10149000BB1BFD010DC0AA1FBB1FEE1FFF1FA21724
:1014A000B307E407F50720F0A21BB30BE40BF50B21
:1014B000661F771F881F991F1A9469F760957095AA
:1014C000809590959B01AC01BD01CF010895EE0F71
:1014D000FF1F881F8BBF0790F691E02D1994F89499
:0214E000FFCF3C
:1014E20000000000DF01870280012C02B1018F01A0
:1014F200A30100000000070687027D037C036E61E2
:101502006E00696E66006F76660043757272656E74
:10151200742076616C75653A20002041000D0A0046
:1015220043757272656E742076616C75653D00005C
:00000001FF
