:100000000C9422010C9453010C9453010C94530151
:100010000C9453010C9453010C9453010C94530110
:100020000C9453010C9453010C9453010C94530100
:100030000C9453010C9453010C9453010C945301F0
:100040000C9453010C9453010C9453010C945301E0
:100050000C9453010C9453010C9453010C943D05E2
:100060000C9453010C9453010C9453010C945301C0
:100070000C9453010C9453010C9453010C945301B0
:100080000C9453010C9453010C9453010C945301A0
:100090000C9453010C9453010C9453010C94530190
:1000A0000C9453010C9453010C9453010C94530180
:1000B0000C9453010C9453010C9453010C94530170
:1000C0000C9453010C9453010C9453010C94530160
:1000D0000C9453010C9453010C9453010C94530150
:1000E0000C9453010C9408020C94E2010C94D80176
:1000F0000C94EC010C94CD010C94B4020C94D1013D
:100100000C94C9010C94F0010C94DE010C94B20122
:100110000C94FA010C9404020C94D5010C94FE0189
:100120000C9455010C94B7010C9434070C945904A9
:100130000C94E8010C94B3020C94F6010000210029
:10014000240027002A002D003000330001010000A8
:10015000040107010A0100002200250028002B00ED
:100160002E003100340002010000050108010B01DE
:1001700005050505070508080808020202020A0A23
:100180000808040404040101010101010101030341
:10019000030303030303040707070C0C0C0C0C0CEC
:1001A0000C0C0202020206060606060606060B0BE9
:1001B0000B0B0B0B0B0B010210202008081020402A
:1001C000102040800201020108040201010204081B
:1001D00010204080804020100804020180040201A9
:1001E00080402010080402010804020101020408F2
:1001F00010204080010204081020408000000A0BFB
:1002000002090C0D0E0807030401000000000000A5
:1002100000000000000000000000000000000000DE
:10022000000000000000000012111000000000009B
:1002300000000000000000000000000000000000BE
:100240000000340711241FBECFEFD1E2DEBFCDBFC7
:1002500000E00CBF12E0A0E0B2E0E4E7F3E100E070
:100260000BBF02C007900D92A232B107D9F722E06E
:10027000A2E2B2E001C01D92A334B207E1F711E09F
:10028000C2E2D1E000E006C021970109802FFE0103
:100290000E94B009C132D10780E00807A9F70E9487
:1002A00087050C94B8090C940000AF92BF92CF92CE
:1002B000DF92EF92FF920F931F93CF93DF936C0126
:1002C0007B018B01040F151FEB015E01AE18BF0807
:1002D000C017D10759F06991D601ED91FC910190B9
:1002E000F081E02DC6011995892B79F7C501DF91C1
:1002F000CF911F910F91FF90EF90DF90CF90BF9023
:10030000AF900895282F30E0F901E450FE4F94910A
:10031000F901EA54FE4F449120593E4FF9012491CE
:10032000222309F435C0992311F191509231F8F448
:10033000E92FF0E08827E056FE4F8F4F0C94B0096C
:10034000D101D501B201C901CD01B701D801DE014A
:10035000E201E801EC01F001F601FA01B701FE014A
:1003600004020802809180008F7780938000E22F42
:10037000F0E0EE0FFF1FEA5AFE4FA591B4918FB740
:10038000F894EC91611148C040954E234C938FBF77
:100390000895809180008F7DE8CF80918000877FD5
:1003A000E4CF84B58F7784BDE2CF84B58F7DFBCF5A
:1003B0008091B0008F778093B000D9CF8091B0004A
:1003C0008F7DF9CF809190008F7780939000CFCF71
:1003D000809190008F7DF9CF80919000877FF5CF3D
:1003E0008091A0008F778093A000C1CF8091A00062
:1003F0008F7DF9CF8091A000877FF5CF809120017C
:100400008F7780932001B3CF809120018F7DF9CF2A
:1004100080912001877FF5CF4E2BB8CFCF93DF930C
:1004200090E0FC01EA54FE4F249180599E4FFC015C
:1004300084918823D1F090E0880F991FFC01E45C3F
:10044000FE4FA591B491FC01EA5AFE4FC591D4919B
:1004500061110EC09FB7F8948C91E22FE0958E2326
:100460008C932881E223E8839FBFDF91CF91089589
:100470008FB7F894EC91E22BEC938FBFF6CF8633D5
:1004800008F0865320917B00982F9870277F922B3D
:1004900090937B008770806480937C0080917A00C9
:1004A000806480937A0080917A0086FDFCCF8091F1
:1004B00078009091790008953FB7F89480912702D1
:1004C00090912802A0912902B0912A0226B5A89BFA
:1004D00005C02F3F19F00196A11DB11D3FBFBA2FD6
:1004E000A92F982F8827BC01CD01620F711D811D96
:1004F000911D42E0660F771F881F991F4A95D1F71B
:1005000008958F929F92AF92BF92CF92DF92EF9217
:10051000FF924B015C010E945C026B017C010E9416
:100520005C026C197D098E099F09683E7340810544
:100530009105A8F321E0821A9108A108B10888EE7C
:10054000C80E83E0D81EE11CF11C81149104A104A3
:10055000B10429F7FF90EF90DF90CF90BF90AF905C
:100560009F908F900895089590E080E00895FC0199
:1005700001900020E9F73197AF01481B590BBC01EE
:100580008BE292E00C9455018F929F92AF92BF92B2
:100590000F931F93CF93DF93CDB7DEB7A1970FB61D
:1005A000F894DEBF0FBECDBF19A2423008F44AE076
:1005B0008E010F5D1F4F842E912CB12CA12CA50113
:1005C00094010E948E09E62FB901CA01EA30F4F4C1
:1005D000E05DD801EE938D01232B242B252B79F799
:1005E00090E080E0109719F0CD010E94B702A1962B
:1005F0000FB6F894DEBF0FBECDBFDF91CF911F9134
:100600000F91BF90AF909F908F900895E95CE1CFDC
:10061000CF93DF93EC0160E08E810E94820161E064
:100620008E810E94820160E08E810E9482018BE8AF
:1006300091E00197F1F7DF91CF910895CF92DF928A
:10064000EF92FF920F931F93CF93DF936C017C0186
:1006500087E0E80EF11CD0E0C0E0062F10E0B80102
:100660000C2E02C0759567950A94E2F76170F70148
:1006700081917F010E9482012196C430D10579F7D2
:10068000C601DF91CF911F910F91FF90EF90DF9006
:10069000CF900C940803CF92DF92EF92FF920F93CA
:1006A0001F93CF93DF93EC01F62E642F8C810E9471
:1006B00082018D818F3F19F060E00E9482010F2D31
:1006C00010E08F8584FF25C06E0187E0C80ED11C25
:1006D000F12CE12CB8010E2C02C0759567950A9497
:1006E000E2F76170F60181916F010E948201FFEFD4
:1006F000EF1AFF0A88E0E816F10461F7CE01DF91F6
:10070000CF911F910F91FF90EF90DF90CF900C94BD
:100710000803B80184E0759567958A95E1F7CE01E5
:100720000E941E036F2DCE01DF91CF911F910F917B
:10073000FF90EF90DF90CF900C941E03CF93DF9348
:10074000823029F490913A02986090933A02809313
:100750003E0210923F0280E48093400280E1809349
:10076000410280E58093420261E080912F020E9465
:100770000E02809130028F3F19F061E00E940E025C
:1007800061E0809131020E940E02CBE2D2E09E0134
:100790002B52324080913A0284FD0BC084E090E0FD
:1007A00021962817390744F461E08E810E940E02D9
:1007B000EECF88E090E0F4CF8BE39DE00197F1F776
:1007C00060E080912F020E94820160E080913102FE
:1007D0000E948201809130028F3F19F060E00E94F8
:1007E000820160913A0264FD45C063E08BE292E0D1
:1007F0000E941E03CBE4D6E4CE010197F1F763E03B
:100800008BE292E00E941E032197F1F763E08BE2F6
:1008100092E00E941E0383E592E00197F1F762E007
:100820008BE292E00E941E0360913A02606240E017
:100830008BE292E00E944B0384E080933B0240E015
:100840006CE08BE292E00E944B0340E061E08BE2BF
:1008500092E00E944B038BE39FE10197F1F782E066
:1008600080933C0240E066E08BE292E0DF91CF9122
:100870000C944B03606240E08BE292E00E944B03D9
:100880008BE496E40197F1F760913A02606240E0F0
:100890008BE292E00E944B0383E592E00197F1F72F
:1008A00060913A02606240E08BE292E00E944B036A
:1008B000BBCF41E00E944B0381E090E008954F924E
:1008C0005F926F927F928F929F92AF92BF92CF92E0
:1008D000DF92EF92FF920F931F93CF936B017C01F6
:1008E000742EAC019B010E948909882399F086E14E
:1008F00092E0CF911F910F91FF90EF90DF90CF90FA
:10090000BF90AF909F908F907F906F905F904F902F
:100910000C94B70246015701E894B7F82FEF3FEF68
:100920004FE75FE7C501B4010E94890981110DC03D
:100930002FEF3FEF4FE75FE7C501B4010E94BF070C
:1009400018161CF48AE192E0D4CF2FEF3FEF4FE767
:100950005FE4C701B6010E94170918161CF48EE166
:1009600092E0C7CF2FEF3FEF4FE75FECC701B60133
:100970000E94BF0787FDF3CF20E030E0A901C70147
:10098000B6010E94BF0710E000E087FF0CC041E005
:100990006DE28BE292E00E944B03F7FAF094F7F8D5
:1009A000F09401E010E0C0E060E070E080E09FE3E0
:1009B0007C1641F020E030E040E251E40E94C407A0
:1009C000CF5FF6CFA70196010E9453074B015C0150
:1009D0000E9436082B013C014AE00E94C402080F25
:1009E000191FCC23C9F1C301B2010E9465089B0104
:1009F000AC01C501B4010E9452074B015C0141E00A
:100A00006EE28BE292E00E944B030F5F1F4FC150DA
:100A100018F120E030E040E251E4C501B4010E9449
:100A20001C092B013C010E9436084B01B12CA12C62
:100A30004AE0C501B4010E94C402080F191FC50194
:100A4000B4010E9465089B01AC01C301B2010E9480
:100A500052074B015C01DBCFC801CF911F910F9171
:100A6000FF90EF90DF90CF90BF90AF909F908F90CE
:100A70007F906F905F904F9008951F920F920FB6E6
:100A80000F9211242F933F938F939F93AF93BF9314
:100A90008091230290912402A0912502B091260218
:100AA0003091220223E0230F2D3758F50196A11D26
:100AB000B11D209322028093230290932402A093DD
:100AC0002502B09326028091270290912802A091DE
:100AD0002902B0912A020196A11DB11D809327021F
:100AE00090932802A0932902B0932A02BF91AF915C
:100AF0009F918F913F912F910F900FBE0F901F905C
:100B0000189526E8230F0296A11DB11DD2CF789427
:100B100084B5826084BD84B5816084BD85B5826002
:100B200085BD85B5816085BD80916E0081608093B3
:100B30006E0010928100809181008260809381001C
:100B4000809181008160809381008091800081602C
:100B5000809380008091B10084608093B100809187
:100B6000B00081608093B00080919100826080939A
:100B7000910080919100816080939100809190001C
:100B80008160809390008091A10082608093A10099
:100B90008091A10081608093A1008091A00081607C
:100BA0008093A00080912101826080932101809137
:100BB00021018160809321018091200181608093D7
:100BC000200180917A00846080937A0080917A007D
:100BD000826080937A0080917A00816080937A00AD
:100BE00080917A00806880937A001092C10060E062
:100BF0008DE30E940E02CCE0D2E01881229661E0E3
:100C0000812F0E940E0261E0812F0E94820122E06A
:100C1000C631D20791F782E00E949E030BE31FE1E9
:100C200080E0E82E80E0F82E60E08BE30E948201F5
:100C300062E370E080E090E00E9481028DE30E9418
:100C40003F02BC01990F880B990B0E9467082AE9A3
:100C500039E94CE454E40E941709C0E01816CCF4BA
:100C60008DE30E943F02BC01990F880B990B0E94F3
:100C700067082AE939E94CE453E40E94C40720E0FC
:100C800030E048E453E40E941C0942E00E945F0403
:100C9000C1E061E08BE30E94820160E08AE30E9490
:100CA000820164E170E080E090E00E948102C11165
:100CB0002AC08DE30E943F02BC01990F880B990B5B
:100CC0000E94670820E030ED4FE354E40E941709CA
:100CD0001816CCF48DE30E943F02BC01990F880BDB
:100CE000990B0E9467082AE939E94CE453E40E9411
:100CF000C40720E030E040E253E40E941C0942E0D7
:100D00000E945F04C1E061E08AE30E94820160E02A
:100D100089E30E94820164E170E080E090E00E943B
:100D20008102C1111FC08DE30E943F028B3A9240A5
:100D3000CCF08DE30E943F02BC01990F880B990B08
:100D40000E9467082AE939E94CE453E40E94C40789
:100D500020E030E040EF52E40E941C0942E00E9493
:100D60005F04C1E061E089E30E94820160E088E302
:100D70000E94820164E170E080E090E00E948102C4
:100D8000C1112AC08DE30E943F02BC01990F880B5C
:100D9000990B0E94670820E030EC4FEF53E40E946B
:100DA00017091816CCF48DE30E943F02BC01990F7D
:100DB000880B990B0E9467082AE939E94CE453E44F
:100DC0000E94C40720E030E040EA52E40E941C097F
:100DD00042E00E945F04C1E061E088E30E9482017A
:100DE00060E087E30E94820164E170E080E090E0CF
:100DF0000E948102C1111EC08DE30E943F0218169D
:100E00001906C4F48DE30E943F02BC01990F880BC0
:100E1000990B0E9467082AE939E94CE453E40E94DF
:100E2000C40720E030E040E252E40E941C0942E0A6
:100E30000E945F0461E087E30E94820168EE73E034
:100E400080E090E00E94810240E061E08BE292E06D
:100E50000E944B03C8010197F1F7E114F10409F472
:100E6000E3CE0E940000E0CEEBE2F2E013821282B9
:100E700084E092E0918380838CE084838FEF85838C
:100E80008BE0868383E0878381E0808789E08187A8
:100E900084E082871386148615861686178681E07D
:100EA0000C949E035058BB27AA270E946A070C94F3
:100EB000DD080E94CF0838F00E94D60820F039F4EF
:100EC0009F3F19F426F40C94CC080EF4E095E7FB50
:100ED0000C94C608E92F0E94EE0858F3BA1762076F
:100EE00073078407950720F079F4A6F50C94100990
:100EF0000EF4E0950B2EBA2FA02D0B01B901900135
:100F00000C01CA01A0011124FF27591B99F0593F78
:100F100050F4503E68F11A16F040A22F232F342FC0
:100F20004427585FF3CF469537952795A795F0400E
:100F30005395C9F77EF41F16BA0B620B730B840B23
:100F4000BAF09150A1F0FF0FBB1F661F771F881FDB
:100F5000C2F70EC0BA0F621F731F841F48F4879533
:100F600077956795B795F7959E3F08F0B0CF939525
:100F7000880F08F09927EE0F9795879508950E949E
:100F8000A20808F481E008950E94D8070C94DD08B7
:100F90000E94D60858F00E94CF0840F029F45F3F25
:100FA00029F00C94C60851110C9411090C94CC082A
:100FB0000E94EE0868F39923B1F3552391F3951B32
:100FC000550BBB27AA2762177307840738F09F5F6A
:100FD0005F4F220F331F441FAA1FA9F335D00E2ED7
:100FE0003AF0E0E832D091505040E695001CCAF744
:100FF0002BD0FE2F29D0660F771F881FBB1F261707
:1010000037074807AB07B0E809F0BB0B802DBF01DD
:10101000FF2793585F4F3AF09E3F510578F00C94AC
:10102000C6080C9411095F3FE4F3983ED4F386950B
:1010300077956795B795F7959F5FC9F7880F911DCD
:101040009695879597F90895E1E0660F771F881FB9
:10105000BB1F621773078407BA0720F0621B730B6C
:10106000840BBA0BEE1F88F7E09508950E94F608EE
:1010700088F09F5798F0B92F9927B751B0F0E1F059
:10108000660F771F881F991F1AF0BA95C9F714C009
:10109000B13091F00E941009B1E008950C9410094C
:1010A000672F782F8827B85F39F0B93FCCF3869542
:1010B00077956795B395D9F73EF49095809570959F
:1010C00061957F4F8F4F9F4F0895E89409C097FB1C
:1010D0003EF490958095709561957F4F8F4F9F4F0F
:1010E0009923A9F0F92F96E9BB279395F695879553
:1010F00077956795B795F111F8CFFAF4BB0F11F416
:1011000060FF1BC06F5F7F4F8F4F9F4F16C08823BC
:1011100011F096E911C0772321F09EE8872F762FF2
:1011200005C0662371F096E8862F70E060E02AF033
:101130009A95660F771F881FDAF7880F969587951F
:1011400097F90895990F0008550FAA0BE0E8FEEFF4
:1011500016161706E807F907C0F012161306E4077B
:10116000F50798F0621B730B840B950B39F40A2674
:1011700061F0232B242B252B21F408950A2609F452
:10118000A140A6958FEF811D811D089597F99F6756
:1011900080E870E060E008959FEF80EC08950024FF
:1011A0000A941616170618060906089500240A94CC
:1011B00012161306140605060895092E0394000C52
:1011C00011F4882352F0BB0F40F4BF2B11F460FFE1
:1011D00004C06F5F7F4F8F4F9F4F089557FD90580A
:1011E000440F551F59F05F3F71F04795880F97FBEB
:1011F000991F61F09F3F79F08795089512161306A5
:101200001406551FF2CF4695F1DF08C016161706D3
:101210001806991FF1CF8695710561050894089508
:10122000E894BB2766277727CB0197F908950E949A
:10123000A20808F48FEF08950E942F090C94DD088E
:101240000E94CF0838F00E94D60820F0952311F0B4
:101250000C94C6080C94CC0811240C9411090E941B
:10126000EE0870F3959FC1F3950F50E0551F629FF4
:10127000F001729FBB27F00DB11D639FAA27F00DEF
:10128000B11DAA1F649F6627B00DA11D661F829F16
:101290002227B00DA11D621F739FB00DA11D621FFB
:1012A000839FA00D611D221F749F3327A00D611D18
:1012B000231F849F600D211D822F762F6A2F1124FA
:1012C0009F5750409AF0F1F088234AF0EE0FFF1F2D
:1012D000BB1F661F771F881F91505040A9F79E3F84
:1012E000510580F00C94C6080C9411095F3FE4F39B
:1012F000983ED4F3869577956795B795F795E795DA
:101300009F5FC1F7FE2B880F911D9695879597F9E2
:1013100008950E94A208880B990B0895A1E21A2E45
:10132000AA1BBB1BFD010DC0AA1FBB1FEE1FFF1F89
:10133000A217B307E407F50720F0A21BB30BE40BD9
:10134000F50B661F771F881F991F1A9469F7609520
:101350007095809590959B01AC01BD01CF010895DA
:10136000EE0FFF1F881F8BBF0790F691E02D199499
:04137000F894FFCF1F
:101374000000000059045501B402B30237003800DC
:1013840039003A003B006E616E00696E66006F764C
:021394006600F1
:00000001FF
