:100000000C9422010C9453010C9453010C94530151
:100010000C9453010C9453010C9453010C94530110
:100020000C9453010C9453010C9453010C94530100
:100030000C9453010C9453010C9453010C945301F0
:100040000C9453010C9453010C9453010C945301E0
:100050000C9453010C9453010C9453010C94FA0327
:100060000C9453010C9453010C9453010C945301C0
:100070000C9453010C9453010C9453010C945301B0
:100080000C9453010C9453010C9453010C945301A0
:100090000C9453010C9453010C9453010C94530190
:1000A0000C9453010C9453010C9453010C94530180
:1000B0000C9453010C9453010C9453010C94530170
:1000C0000C9453010C9453010C9453010C94530160
:1000D0000C9453010C9453010C9453010C94530150
:1000E0000C9453010C9427020C94E8010C9419020F
:1000F0000C9423020C94EC010C94BB050C941D028F
:100100000C9407020C9453020C940B020C94D10132
:100110000C94F4030C940F020C94D6010C94F70188
:100120000C9401020C94F4010C9474010C94F001F1
:100130000C9415020C9452020C94FD0100000A0B61
:1001400002090C0D0E080703040100000000000066
:10015000000000000000000000000000000000009F
:10016000000000000000000012111000000000005C
:10017000000000000000000000000000000000007F
:10018000000000002200250028002B002E00310076
:10019000340002010000050108010B0100002100EC
:1001A000240027002A002D00300033000101000048
:1001B000040107010A0105050505070508080808E7
:1001C000020202020A0A08080404040401010101EF
:1001D00001010101030303030303030304070707EA
:1001E0000C0C0C0C0C0C0C0C02020202060606068F
:1001F000060606060B0B0B0B0B0B0B0B010210205C
:10020000200808102040102040800201020108044C
:1002100002010102040810204080804020100804E0
:100220000201800402018040201008040201080439
:10023000020101020408102040800102040810207D
:100240004080BB0511241FBECFEFD1E2DEBFCDBF82
:1002500000E00CBF12E0A0E0B2E0E2E8F0E100E074
:100260000BBF02C007900D92AC31B107D9F722E065
:10027000ACE1B2E001C01D92AD33B207E1F711E08D
:10028000C2E2D1E000E006C021970109802FFE0103
:100290000E943708C132D10780E00807A9F70E9401
:1002A00044040C943F080C94000090E0FC01E450DE
:1002B000FE4F24918A549E4FFC018491882399F02B
:1002C00090E0880F991FFC01E456FE4FA591B49170
:1002D000FC01EE57FE4F859194918FB7F894EC9105
:1002E000E22BEC938FBF0895AF92BF92CF92DF9233
:1002F000EF92FF920F931F93CF93DF936C017B01DB
:100300008B01040F151FEB015E01AE18BF08C0176B
:10031000D10759F06991D601ED91FC910190F081DE
:10032000E02DC6011995892B79F7C501DF91CF9191
:100330001F910F91FF90EF90DF90CF90BF90AF9003
:100340000895282F30E0F901E45CFE4F9491F90103
:10035000E450FE4F44912A543E4FF9012491222348
:1003600009F435C0992311F191509231F8F4E92F35
:10037000F0E08827E154FE4F8F4F0C943708F001CE
:10038000F401D101E801EC01D601F701FD01010200
:1003900007020B020F0215021902D6011D022302E9
:1003A0002702809180008F7780938000E22FF0E019
:1003B000EE0FFF1FEE57FE4FA591B4918FB7F89443
:1003C000EC91611148C040954E234C938FBF089526
:1003D000809180008F7DE8CF80918000877FE4CF7F
:1003E00084B58F7784BDE2CF84B58F7DFBCF8091BC
:1003F000B0008F778093B000D9CF8091B0008F7D0F
:10040000F9CF809190008F7780939000CFCF80912B
:1004100090008F7DF9CF80919000877FF5CF8091FC
:10042000A0008F778093A000C1CF8091A0008F7D26
:10043000F9CF8091A000877FF5CF809120018F7741
:1004400080932001B3CF809120018F7DF9CF8091DF
:100450002001877FF5CF4E2BB8CF3FB7F89480911E
:10046000210290912202A0912302B091240226B58C
:10047000A89B05C02F3F19F00196A11DB11D3FBFDC
:10048000BA2FA92F982F8827BC01CD01620F711DAB
:10049000811D911D42E0660F771F881F991F4A95A5
:1004A000D1F70895089590E080E00895FC0101904F
:1004B0000020E9F73197AF01481B590BBC0185E2D9
:1004C00092E00C9474018F929F92AF92BF920F931F
:1004D0001F93CF93DF93CDB7DEB7A1970FB6F894F4
:1004E000DEBF0FBECDBF19A2423008F44AE08E0134
:1004F0000F5D1F4F842E912CB12CA12CA5019401CE
:100500000E941508E62FB901CA01EA30F4F4E05D53
:10051000D801EE938D01232B242B252B79F790E026
:1005200080E0109719F0CD010E945602A1960FB6F7
:10053000F894DEBF0FBECDBFDF91CF911F910F9119
:10054000BF90AF909F908F900895E95CE1CFCF93DB
:10055000DF93EC0160E08E810E94A10161E08E8159
:100560000E94A10160E08E810E94A1018BE891E0D0
:100570000197F1F7DF91CF910895CF92DF92EF923B
:10058000FF920F931F93CF93DF936C017C0187E061
:10059000E80EF11CD0E0C0E0062F10E0B8010C2EF0
:1005A00002C0759567950A94E2F76170F701819131
:1005B0007F010E94A1012196C430D10579F7C601BF
:1005C000DF91CF911F910F91FF90EF90DF90CF902F
:1005D0000C94A702CF92DF92EF92FF920F931F939A
:1005E000CF93DF93EC01F62E642F8C810E94A10142
:1005F0008D818F3F19F060E00E94A1010F2D10E066
:100600008F8584FF25C06E0187E0C80ED11CF12CB8
:10061000E12CB8010E2C02C0759567950A94E2F79B
:100620006170F60181916F010E94A101FFEFEF1A45
:10063000FF0A88E0E816F10461F7CE01DF91CF915F
:100640001F910F91FF90EF90DF90CF900C94A70235
:10065000B80184E0759567958A95E1F7CE010E940F
:10066000BD026F2DCE01DF91CF911F910F91FF90B1
:10067000EF90DF90CF900C94BD02CF93DF93823048
:1006800029F4909134029860909334028093380258
:100690001092390280E480933A0280E180933B0219
:1006A00080E580933C02809129020E94550180914F
:1006B0002A028F3F11F00E94550180912B020E9467
:1006C0005501C5E2D2E09E012552324080913402AC
:1006D00084FD0AC084E090E02196281739073CF495
:1006E0008E810E945501EFCF88E090E0F5CF8BE33B
:1006F0009DE00197F1F760E0809129020E94A1013D
:1007000060E080912B020E94A10180912A028F3F1C
:1007100019F060E00E94A1016091340264FD45C0BF
:1007200063E085E292E00E94BD02CBE4D6E4CE0114
:100730000197F1F763E085E292E00E94BD02219704
:10074000F1F763E085E292E00E94BD0283E592E06A
:100750000197F1F762E085E292E00E94BD026091AC
:100760003402606240E085E292E00E94EA0284E0A6
:100770008093350240E06CE085E292E00E94EA025C
:1007800040E061E085E292E00E94EA028BE39FE1B3
:100790000197F1F782E08093360240E066E085E25F
:1007A00092E0DF91CF910C94EA02606240E085E232
:1007B00092E00E94EA028BE496E40197F1F76091DF
:1007C0003402606240E085E292E00E94EA0283E542
:1007D00092E00197F1F760913402606240E085E2B7
:1007E00092E00E94EA02BBCF41E00E94EA0281E06F
:1007F00090E008951F920F920FB60F9211242F933D
:100800003F938F939F93AF93BF9380911D029091DD
:100810001E02A0911F02B091200230911C0223E021
:10082000230F2D3758F50196A11DB11D20931C02F1
:1008300080931D0290931E02A0931F02B09320028A
:100840008091210290912202A0912302B091240272
:100850000196A11DB11D8093210290932202A093C5
:100860002302B0932402BF91AF919F918F913F914A
:100870002F910F900FBE0F901F90189526E8230F11
:100880000296A11DB11DD2CF789484B5826084BD3B
:1008900084B5816084BD85B5826085BD85B5816084
:1008A00085BD80916E00816080936E001092810002
:1008B00080918100826080938100809181008160BD
:1008C000809381008091800081608093800080917E
:1008D000B10084608093B1008091B000816080930A
:1008E000B00080919100826080939100809191008E
:1008F000816080939100809190008160809390004E
:100900008091A10082608093A1008091A10081600C
:100910008093A1008091A00081608093A0008091CD
:100920002101826080932101809121018160809367
:1009300021018091200181608093200180917A00C3
:10094000846080937A0080917A00826080937A003C
:1009500080917A00816080937A0080917A0080682B
:1009600080937A001092C10082E00E943D0390E4DF
:10097000392E0BE31FE1C0E0D0E080917B00877F40
:1009800080937B0030927C0080917A008064809319
:100990007A0080917A0086FDFCCF8091780060918A
:1009A0007900762F682F072E000C880B990B0E9478
:1009B000EE062AE939E94CE453E40E944B066B0148
:1009C0007C014B015C01AC019B010E941008882353
:1009D000E1F18CE092E00E94560288E192E00E94F0
:1009E00056020E942D024B015C0188EEC82E83E066
:1009F000D82EE12CF12C0E942D02681979098A0960
:100A00009B09683E734081059105A8F321E0C21A55
:100A1000D108E108F10888EE880E83E0981EA11C39
:100A2000B11CC114D104E104F10429F740E061E0F4
:100A300085E292E00E94EA02C8010197F1F720974F
:100A400009F49BCF0E94000098CF26013701E8945B
:100A500077F82FEF3FEF4FE75FE7C301B2010E9446
:100A6000100881110DC02FEF3FEF4FE75FE7C30183
:100A7000B2010E94460618161CF480E192E0ABCF4A
:100A80002FEF3FEF4FE75FE4C701B6010E949E07DB
:100A900018161CF484E192E09ECF2FEF3FEF4FE752
:100AA0005FECC701B6010E94460687FDF3CF20E048
:100AB00030E0A901C701B6010E94460687FF0CC0BD
:100AC00041E06DE285E292E00E94EA0246015701B0
:100AD000B7FAB094B7F8B0942AE037ED43EA5BE395
:100AE000C501B4010E94DA054B015C010E94BD06FC
:100AF0006B017C010E94EC069B01AC01C501B401B5
:100B00000E94D9054B015C014AE0C701B6010E9471
:100B1000630241E06EE285E292E00E94EA0220E098
:100B200030E040E251E4C501B4010E94A3074B014B
:100B30005C010E94BD066B01F12CE12C4AE0C7016B
:100B4000B6010E946302C701B6010E94EC069B0138
:100B5000AC01C501B4010E94D90520E030E040E2BB
:100B600051E40E94A3070E94BD0690E080E04AE0A5
:100B70000E94630232CFE5E2F2E01382128284E047
:100B800092E0918380838CE084838FEF85838BE078
:100B9000868383E0878381E0808789E0818784E0A2
:100BA00082871386148615861686178681E00C9434
:100BB0003D035058BB27AA270E94F1050C946407F7
:100BC0000E94560738F00E945D0720F039F49F3FDD
:100BD00019F426F40C9453070EF4E095E7FB0C94FB
:100BE0004D07E92F0E94750758F3BA17620773077C
:100BF0008407950720F079F4A6F50C9497070EF476
:100C0000E0950B2EBA2FA02D0B01B90190010C011C
:100C1000CA01A0011124FF27591B99F0593F50F434
:100C2000503E68F11A16F040A22F232F342F44278C
:100C3000585FF3CF469537952795A795F040539584
:100C4000C9F77EF41F16BA0B620B730B840BBAF054
:100C50009150A1F0FF0FBB1F661F771F881FC2F7BF
:100C60000EC0BA0F621F731F841F48F487957795D3
:100C70006795B795F7959E3F08F0B0CF9395880F8D
:100C800008F09927EE0F9795879508950E942907F8
:100C900008F481E008950E945F060C9464070E94A6
:100CA0005D0758F00E94560740F029F45F3F29F095
:100CB0000C944D0751110C9498070C9453070E9403
:100CC000750768F39923B1F3552391F3951B550BE1
:100CD000BB27AA2762177307840738F09F5F5F4F0F
:100CE000220F331F441FAA1FA9F335D00E2E3AF04E
:100CF000E0E832D091505040E695001CCAF72BD066
:100D0000FE2F29D0660F771F881FBB1F26173707B6
:100D10004807AB07B0E809F0BB0B802DBF01FF27E8
:100D200093585F4F3AF09E3F510578F00C944D0771
:100D30000C9498075F3FE4F3983ED4F3869577953B
:100D40006795B795F7959F5FC9F7880F911D9695A1
:100D5000879597F90895E1E0660F771F881FBB1FFD
:100D6000621773078407BA0720F0621B730B840BAA
:100D7000BA0BEE1F88F7E09508950E947D0788F072
:100D80009F5798F0B92F9927B751B0F0E1F0660F4F
:100D9000771F881F991F1AF0BA95C9F714C0B13090
:100DA00091F00E949707B1E008950C949707672F80
:100DB000782F8827B85F39F0B93FCCF386957795BF
:100DC0006795B395D9F73EF49095809570956195A8
:100DD0007F4F8F4F9F4F0895E89409C097FB3EF4D3
:100DE00090958095709561957F4F8F4F9F4F992378
:100DF000A9F0F92F96E9BB279395F69587957795F6
:100E00006795B795F111F8CFFAF4BB0F11F460FFB5
:100E10001BC06F5F7F4F8F4F9F4F16C0882311F00D
:100E200096E911C0772321F09EE8872F762F05C021
:100E3000662371F096E8862F70E060E02AF09A95BC
:100E4000660F771F881FDAF7880F9695879597F9B1
:100E50000895990F0008550FAA0BE0E8FEEF16164B
:100E60001706E807F907C0F012161306E407F5079E
:100E700098F0621B730B840B950B39F40A2661F012
:100E8000232B242B252B21F408950A2609F4A140B5
:100E9000A6958FEF811D811D089597F99F6780E8C2
:100EA00070E060E008959FEF80EC089500240A94BC
:100EB0001616170618060906089500240A94121635
:100EC0001306140605060895092E0394000C11F468
:100ED000882352F0BB0F40F4BF2B11F460FF04C015
:100EE0006F5F7F4F8F4F9F4F089557FD9058440F6E
:100EF000551F59F05F3F71F04795880F97FB991F79
:100F000061F09F3F79F08795089512161306140635
:100F1000551FF2CF4695F1DF08C0161617061806C2
:100F2000991FF1CF86957105610508940895E8949D
:100F3000BB2766277727CB0197F908950E942907D9
:100F400008F48FEF08950E94B6070C9464070E947E
:100F5000560738F00E945D0720F0952311F00C949D
:100F60004D070C94530711240C9498070E947507A1
:100F700070F3959FC1F3950F50E0551F629FF001EC
:100F8000729FBB27F00DB11D639FAA27F00DB11D05
:100F9000AA1F649F6627B00DA11D661F829F22278E
:100FA000B00DA11D621F739FB00DA11D621F839F15
:100FB000A00D611D221F749F3327A00D611D231FEB
:100FC000849F600D211D822F762F6A2F11249F5739
:100FD00050409AF0F1F088234AF0EE0FFF1FBB1F3C
:100FE000661F771F881F91505040A9F79E3F5105FB
:100FF00080F00C944D070C9498075F3FE4F3983E03
:10100000D4F3869577956795B795F795E7959F5FA4
:10101000C1F7FE2B880F911D9695879597F9089536
:101020000E942907880B990B0895A1E21A2EAA1B8A
:10103000BB1BFD010DC0AA1FBB1FEE1FFF1FA21788
:10104000B307E407F50720F0A21BB30BE40BF50B85
:10105000661F771F881F991F1A9469F7609570950E
:10106000809590959B01AC01BD01CF010895EE0FD5
:10107000FF1F881F8BBF0790F691E02D1994F894FD
:02108000FFCFA0
:1010820000000000F4037401530252026E616E000C
:0C109200696E66006F7666002056000054
:00000001FF
