:100000000C9426010C942E040C9403040C94D80335
:100010000C94AD030C9482030C9457030C942C03A2
:100020000C9401030C9447010C9447010C94470174
:100030000C9447010C9447010C9447010C94470120
:100040000C9447010C9447010C9447010C94470110
:100050000C9447010C9447010C9447010C94B7028F
:100060000C9447010C9447010C9447010C944701F0
:100070000C9447010C9447010C9447010C944701E0
:100080000C9447010C9447010C9447010C944701D0
:100090000C9447010C9447010C9447010C944701C0
:1000A0000C9447010C9447010C9447010C944701B0
:1000B0000C9447010C9447010C9447010C944701A0
:1000C0000C9447010C9447010C9447010C94470190
:1000D0000C9447010C9447010C9447010C94470180
:1000E0000C9447010C948D010C9495010C949B0188
:1000F0000C946E010C9472010C9468010C948701AD
:100100000C9476010C949B020C947D010C9491014B
:100110000C9483010C94AD010C94A8010C94A901DA
:100120000C94A3010C947A010C949F01000021000F
:10013000240027002A002D003000330001010000B8
:10014000040107010A0100002200250028002B00FD
:100150002E003100340002010000050108010B01EE
:10016000000020002300260029002C002F00320070
:100170000001000003010601090105050505070549
:1001800008080808020202020A0A08080404040413
:10019000010101010101010103030303030303033F
:1001A000040707070C0C0C0C0C0C0C0C02020202CE
:1001B00006060606060606060B0B0B0B0B0B0B0BB7
:1001C0000102102020080810204010204080020169
:1001D000020108040201010204081020408080404E
:1001E000201008040201800402018040201008044D
:1001F00002010804020101020408102040800102EB
:1002000004081020408000000A0B02090C0D0E08A3
:1002100007030401000000000000000000000000CF
:1002200000000000000000000000000000000000CE
:10023000000012111000000000000000000000008B
:1002400000000000000000000000000011241FBE9C
:10025000CFEFD1E2DEBFCDBF00E00CBF12E0A0E0E7
:10026000B2E0EEE5FBE000E00BBF02C007900D92AC
:10027000A031B107D9F722E0A0E1B2E001C01D92A0
:10028000A931B207E1F70E9459040C94AD050C9412
:10029000000008958150823108F05AC0E82FF0E044
:1002A0008827EA5AFE4F8F4F0C94A50576017A01F4
:1002B00068016E017201A8017D01830187018D0132
:1002C000910195019B019F01A801A301A901AD0125
:1002D000809180008F7780938000089580918000C6
:1002E0008F7DF9CF80918000877FF5CF84B58F77A0
:1002F00084BD089584B58F7DFBCF8091B0008F774A
:100300008093B00008958091B0008F7DF9CF8091E7
:1003100090008F77809390000895809190008F7D5A
:10032000F9CF80919000877FF5CF8091A0008F77E3
:100330008093A00008958091A0008F7DF9CF8091D7
:10034000A000877FF5CF809120018F7780932001D7
:100350000895809120018F7DF9CF80912001877FC2
:10036000F5CFCF93DF93282F30E0F901EA5FFD4FFF
:100370008491F901E054FE4FD491F901E658FE4F03
:10038000C491CC23A1F081110E944A01EC2FF0E02E
:10039000EE0FFF1FE05AFE4FA591B491EC91ED23B3
:1003A00081E090E009F480E0DF91CF91089580E052
:1003B00090E0FACF1F93CF93DF93282F30E0F9011D
:1003C000EA5FFD4F8491F901E054FE4FD491F901A9
:1003D000E658FE4FC491CC23A9F0162F81110E943C
:1003E0004A01EC2FF0E0EE0FFF1FEA5BFE4FA591F4
:1003F000B4918FB7F894EC91111108C0D095DE2319
:10040000DC938FBFDF91CF911F910895DE2BF8CF42
:10041000CF93DF9390E0FC01E054FE4F2491865887
:100420009E4FFC0184918823C9F090E0880F991FAA
:10043000FC01E45DFE4FA591B491FC01EA5BFE4F27
:10044000C591D49161110DC09FB7F8948C912095FE
:1004500082238C938881282328839FBFDF91CF91AB
:100460000895623051F49FB7F8943C91822F8095A3
:1004700083238C93E8812E2BEFCF8FB7F894EC91E8
:100480002E2B2C938FBFEACF3FB7F89480911502A3
:1004900090911602A0911702B091180226B5A89B60
:1004A00005C02F3F19F00196A11DB11D3FBFBA2F06
:1004B000A92F982F8827BC01CD01620F711D811DC6
:1004C000911D42E0660F771F881F991F4A95D1F74B
:1004D00008958F929F92AF92BF92CF92DF92EF9248
:1004E000FF924B015C010E9444026B017C010E945F
:1004F00044026C197D098E099F09683E734081058D
:100500009105A8F321E0821A9108A108B10888EEAC
:10051000C80E83E0D81EE11CF11C81149104A104D3
:10052000B10429F7FF90EF90DF90CF90BF90AF908C
:100530009F908F9008950895CF93C82F682F85E4DA
:100540000E94DA016C2F82E40E94DA016C2F8FE3A3
:100550000E94DA016C2F8AE30E94DA016C2F86E395
:100560000E94DA016C2F86E0CF910C94DA011F9281
:100570000F920FB60F9211242F933F938F939F9357
:10058000AF93BF938091110290911202A091130238
:10059000B09114023091100223E0230F2D3758F54B
:1005A0000196A11DB11D209310028093110290931A
:1005B0001202A0931302B09314028091150290913D
:1005C0001602A0911702B09118020196A11DB11D4B
:1005D0008093150290931602A0931702B09318020D
:1005E000BF91AF919F918F913F912F910F900FBE2F
:1005F0000F901F90189526E8230F0296A11DB11D9C
:10060000D2CF1F920F920FB60F9211240BB60F92FA
:100610002F933F934F935F936F937F938F939F930A
:10062000AF93BF93EF93FF93E0910E02F0910F020F
:100630001995FF91EF91BF91AF919F918F917F910C
:100640006F915F914F913F912F910F900BBE0F9043
:100650000FBE0F901F9018951F920F920FB60F921A
:1006600011240BB60F922F933F934F935F936F9389
:100670007F938F939F93AF93BF93EF93FF93E091FB
:100680000C02F0910D021995FF91EF91BF91AF917E
:100690009F918F917F916F915F914F913F912F919A
:1006A0000F900BBE0F900FBE0F901F9018951F92CA
:1006B0000F920FB60F9211240BB60F922F933F9308
:1006C0004F935F936F937F938F939F93AF93BF935A
:1006D000EF93FF93E0910202F09103021995FF91CD
:1006E000EF91BF91AF919F918F917F916F915F91AA
:1006F0004F913F912F910F900BBE0F900FBE0F9017
:100700001F9018951F920F920FB60F9211240BB6DF
:100710000F922F933F934F935F936F937F938F939A
:100720009F93AF93BF93EF93FF93E0910002F091FB
:1007300001021995FF91EF91BF91AF919F918F9118
:100740007F916F915F914F913F912F910F900BBED1
:100750000F900FBE0F901F9018951F920F920FB61B
:100760000F9211240BB60F922F933F934F935F93E9
:100770006F937F938F939F93AF93BF93EF93FF9369
:10078000E0910A02F0910B021995FF91EF91BF9150
:10079000AF919F918F917F916F915F914F913F9119
:1007A0002F910F900BBE0F900FBE0F901F901895BA
:1007B0001F920F920FB60F9211240BB60F922F9328
:1007C0003F934F935F936F937F938F939F93AF93D9
:1007D000BF93EF93FF93E0910802F09109021995FE
:1007E000FF91EF91BF91AF919F918F917F916F9109
:1007F0005F914F913F912F910F900BBE0F900FBEC5
:100800000F901F9018951F920F920FB60F92112400
:100810000BB60F922F933F934F935F936F937F93FA
:100820008F939F93AF93BF93EF93FF93E091060253
:10083000F09107021995FF91EF91BF91AF919F91B0
:100840008F917F916F915F914F913F912F910F9079
:100850000BBE0F900FBE0F901F9018951F920F9216
:100860000FB60F9211240BB60F922F933F934F9315
:100870005F936F937F938F939F93AF93BF93EF9308
:10088000FF93E0910402F09105021995FF91EF9119
:10089000BF91AF919F918F917F916F915F914F9198
:1008A0003F912F910F900BBE0F900FBE0F901F9096
:1008B0001895789484B5826084BD84B5816084BDC8
:1008C00085B5826085BD85B5816085BD80916E00EE
:1008D000816080936E00109281008091810082601F
:1008E000809381008091810081608093810080915C
:1008F00080008160809380008091B100846080934B
:10090000B1008091B00081608093B000809191002F
:10091000826080939100809191008160809391002A
:10092000809190008160809390008091A10082600E
:100930008093A1008091A10081608093A1008091AB
:10094000A00081608093A00080912101826080934B
:1009500021018091210181608093210180912001FA
:1009600081608093200180917A00846080937A0076
:1009700080917A00826080937A0080917A00816011
:1009800080937A0080917A00806880937A00109238
:10099000C10061E085E40E94080261E082E40E94F7
:1009A000080261E08FE30E94080261E08AE30E948E
:1009B000080261E086E30E94080261E086E00E948E
:1009C000080281E090E00E949C0268EE73E080E003
:1009D00090E00E94690290E080E00E949C0268EE34
:1009E00073E080E090E00E94690262E08DE00E9486
:1009F000080260E081E00E940802789400E010E0C4
:100A00008DE00E94B101892B11F560E08FE30E9417
:100A1000DA0160E08AE30E94DA0161E082E40E9488
:100A2000DA0164EF71E080E090E00E94690260E02A
:100A300082E40E94DA0164EF71E080E090E00E94BD
:100A4000690201151105E1F20E940000D9CF81E091
:100A50000E94B101892B09F06DC061E086E00E941F
:100A6000DA0160ED77E080E090E00E94690260E0EA
:100A70008FE30E94DA0161E082E40E94DA0160ED16
:100A800077E080E090E00E94690260E082E40E94EA
:100A9000DA0161E085E40E94DA0160ED77E080E050
:100AA00090E00E94690260E08AE30E94DA0161E05E
:100AB00086E30E94DA0160E086E00E94DA0168E8DD
:100AC00073E180E090E00E946902C5E0D0E061E05F
:100AD00086E30E94DA0164EF71E080E090E00E941A
:100AE000690260E086E30E94DA0164EF71E080E071
:100AF00090E00E946902219751F761E08AE30E9429
:100B0000DA0160ED77E080E090E00E94690260E049
:100B100085E40E94DA0161E082E40E94DA0168EE75
:100B200073E080E090E00E94690260E082E40E944D
:100B3000DA0187CF60E082E40E94DA0161E08FE3AE
:100B40000E94DA0161E08AE3F2CFEE0FFF1F881FF7
:0E0B50008BBF0790F691E02D1994F894FFCF1B
:100B5E009B029B029B029B029B029B029B029B029F
:00000001FF
