:100000000C9417010C9438010C9438010C943801AD
:100010000C9438010C9438010C9438010C9438017C
:100020000C9438010C9438010C9438010C9438016C
:100030000C9438010C9438010C9438010C9438015C
:100040000C9438010C9438010C9438010C9438014C
:100050000C9438010C9438010C9438010C94600213
:100060000C9438010C9438010C9438010C9438012C
:100070000C9438010C9438010C9438010C9438011C
:100080000C9438010C9438010C9438010C9438010C
:100090000C9438010C9438010C9438010C943801FC
:1000A0000C9438010C9438010C9438010C943801EC
:1000B0000C9438010C9438010C9438010C943801DC
:1000C0000C9438010C9438010C9438010C943801CC
:1000D0000C9438010C9438010C9438010C943801BC
:1000E0000C9438010C94AE010C94BC010C948D015D
:1000F0000C94A8010C9490010C9485010C94B60109
:100100000C94A0010C9481010C94A4010C94C001E6
:100110000C9489010C946A010C9496010C946F0163
:100120000C949A010C94B20100000A0B02090C0D08
:100130000E0807030401000000000000000000009A
:1001400000000000000000000000000000000000AF
:10015000000000001211100000000000000000006C
:10016000000000000000000000000000000000008F
:100170002200250028002B002E003100340002014F
:100180000000050108010B010000210024002700E8
:100190002A002D0030003300010100000401070196
:1001A0000A010505050507050808080802020202FC
:1001B0000A0A080804040404010101010101010103
:1001C0000303030303030303040707070C0C0C0CCE
:1001D0000C0C0C0C020202020606060606060606B7
:1001E0000B0B0B0B0B0B0B0B010210202008081044
:1001F0002040102040800201020108040201010297
:10020000040810204080804020100804020180046F
:1002100002018040201008040201080402010102CA
:10022000040810204080010204081020408011249E
:100230001FBECFEFD1E2DEBFCDBF00E00CBF12E0AA
:10024000A0E0B2E0E6E2F8E000E00BBF02C00790F9
:100250000D92A030B107D9F722E0A0E0B2E001C0D2
:100260001D92AF30B207E1F70E94AA020C9411046C
:100270000C940000282F30E0F901E85DFE4F9491C6
:10028000F901E851FE4F44912E553E4FF90124915A
:10029000222309F435C0992311F191509231F8F4D9
:1002A000E92FF0E08827E85AFE4F8F4F0C940204A4
:1002B00089018D016A01810185016F01900196011B
:1002C0009A01A001A401A801AE01B2016F01B6011B
:1002D000BC01C001809180008F7780938000E22F65
:1002E000F0E0EE0FFF1FE259FE4FA591B4918FB7DA
:1002F000F894EC91611148C040954E234C938FBF08
:100300000895809180008F7DE8CF80918000877F65
:10031000E4CF84B58F7784BDE2CF84B58F7DFBCFEA
:100320008091B0008F778093B000D9CF8091B000DA
:100330008F7DF9CF809190008F7780939000CFCF01
:10034000809190008F7DF9CF80919000877FF5CFCD
:100350008091A0008F778093A000C1CF8091A000F2
:100360008F7DF9CF8091A000877FF5CF809120010C
:100370008F7780932001B3CF809120018F7DF9CFBB
:1003800080912001877FF5CF4E2BB8CF3FB7F894EF
:100390008091050290910602A0910702B091080297
:1003A00026B5A89B05C02F3F19F00196A11DB11DD0
:1003B0003FBFBA2FA92F982F8827BC01CD01620F0C
:1003C000711D811D911D42E0660F771F881F991FC7
:1003D0004A95D1F708958F929F92AF92BF92CF9294
:1003E000DF92EF92FF924B015C010E94C6016B010C
:1003F0007C010E94C6016C197D098E099F09683E27
:10040000734081059105A8F321E0821A9108A108A3
:10041000B10888EEC80E83E0D81EE11CF11C8114DF
:100420009104A104B10429F7FF90EF90DF90CF90E1
:10043000BF90AF909F908F900895EF92FF920F938F
:100440001F93CF93C82F7B018A0161E00E943A017C
:1004500024EB30E0D7010E940A04980121503109B1
:10046000032E000C440B550B0E94B203D90120EB64
:1004700034E00E940A0424EB30E040E050E00E94A7
:10048000B203205E3C4F4F4F5F4F2230310548F0A2
:10049000220F331F220F331F25503109C901019745
:1004A000F1F760E08C2F0E943A016AE070E080E092
:1004B00090E0CF911F910F91FF90EF900C94EB0182
:1004C0001F920F920FB60F9211242F933F938F9389
:1004D0009F93AF93BF938091010290910202A091EC
:1004E0000302B09104023091000223E0230F2D3764
:1004F00058F50196A11DB11D2093000280930102C1
:1005000090930202A0930302B0930402809105022B
:1005100090910602A0910702B09108020196A11DD8
:10052000B11D8093050290930602A0930702B09339
:100530000802BF91AF919F918F913F912F910F90A2
:100540000FBE0F901F90189526E8230F0296A11D4D
:10055000B11DD2CF789484B5826084BD84B58160AA
:1005600084BD85B5826085BD85B5816085BD80917E
:100570006E00816080936E001092810080918100F6
:1005800082608093810080918100816080938100EE
:10059000809180008160809380008091B1008460B0
:1005A0008093B1008091B00081608093B000809111
:1005B000910082608093910080919100816080938E
:1005C0009100809190008160809390008091A100C3
:1005D00082608093A1008091A10081608093A1003E
:1005E0008091A00081608093A000809121018260B1
:1005F000809321018091210181608093210180916C
:10060000200181608093200180917A008460809332
:100610007A0080917A00826080937A0080917A00DB
:10062000816080937A0080917A00806880937A005C
:100630001092C100EFE0F2E02491E9ECF1E0849146
:10064000882399F090E0880F991FFC01E857FE4F2E
:10065000A591B491FC01E259FE4F859194918FB719
:10066000F894EC91E22BEC938FBF0BE91FE080E054
:10067000E82E80E0F82EC0910D02D0910E02CC330E
:10068000D10574F5C0900B02D0900C022196D09346
:100690000E02C0930D0264E670E080E090E00E94DC
:1006A000EB01EC97E9F48FEFC81AD80AD0920C024C
:1006B000C0920B0210920E0210920D02C4E1D0E023
:1006C00061E087E20E943A01C8010197F1F760E01A
:1006D00087E20E943A01C8010197F1F7219781F75B
:1006E00080910B0290910C02CC9769F480910902E1
:1006F00090910A02019690930A0280930902109247
:100700000C0210920B028091090290910A020B9741
:1007100021F410920A021092090260910D02709168
:100720000E024CE350E085E090E00E941D026091D3
:100730000B0270910C024CE350E086E090E00E94C6
:100740001D026091090270910A024CE050E087E0BE
:1007500090E00E941D02E114F10409F48CCF0E9484
:10076000000089CF052E97FB1EF400940E94C90358
:1007700057FD07D00E94D10307FC03D04EF40C9420
:10078000C90350954095309521953F4F4F4F5F4F8E
:10079000089590958095709561957F4F8F4F9F4FED
:1007A0000895A1E21A2EAA1BBB1BFD010DC0AA1FB2
:1007B000BB1FEE1FFF1FA217B307E407F50720F0CA
:1007C000A21BB30BE40BF50B661F771F881F991F45
:1007D0001A9469F760957095809590959B01AC018E
:1007E000BD01CF010895A29FB001B39FC001A39F97
:1007F000700D811D1124911DB29F700D811D11245A
:10080000911D0895EE0FFF1F881F8BBF0790F69173
:10081000E02D19940E94F303B7FF0895821B930BF8
:060820000895F894FFCFDB
:00000001FF
