:100000000C942D010C945E010C945E010C945E0125
:100010000C945E010C945E010C945E010C945E01E4
:100020000C945E010C945E010C945E010C945E01D4
:100030000C945E010C945E010C945E010C945E01C4
:100040000C945E010C945E010C945E010C945E01B4
:100050000C945E010C945E010C945E010C94970468
:100060000C945E010C945E010C945E010C945E0194
:100070000C945E010C945E010C945E010C945E0184
:100080000C945E010C945E010C945E010C945E0174
:100090000C945E010C945E010C945E010C945E0164
:1000A0000C945E010C945E010C945E010C945E0154
:1000B0000C945E010C945E010C945E010C945E0144
:1000C0000C945E010C945E010C945E010C945E0134
:1000D0000C945E010C945E010C945E010C945E0124
:1000E0000C945E010C94BC010C94E2010C94AB01E5
:1000F0000C9484020C94D4010C94A7010C94C601B6
:100100000C94AF010C94CA010C94B3010C943D09FA
:100110000C94B6010C94CE010C94C0010C94130203
:100120000C9444020C94E6010C94A1010C94E1019E
:100130000C94D8010C94DC0100002100240027005D
:100140002A002D00300033000101000004010701E6
:100150000A0100002200250028002B002E0031009B
:10016000340002010000050108010B01000020001D
:100170002300260029002C002F003200000100007F
:10018000030106010901050505050705080808081A
:10019000020202020A0A080804040404010101011F
:1001A000010101010303030303030303040707071A
:1001B0000C0C0C0C0C0C0C0C0202020206060606BF
:1001C000060606060B0B0B0B0B0B0B0B010210208C
:1001D000200808102040102040800201020108047D
:1001E0000201010204081020408080402010080411
:1001F000020180040201804020100804020108046A
:1002000002010102040810204080010204081020AD
:10021000408000000A0B02090C0D0E0807030401C0
:1002200000000000000000000000000000000000CE
:10023000000000000000000000000000000012119B
:10024000100000000000000000000000000000009E
:1002500000000000000000003D0911241FBECFEF88
:10026000D1E2DEBFCDBF00E00CBF14E0A0E0B2E001
:10027000EEE8F4E100E00BBF02C007900D92A0335E
:10028000B107D9F725E0A0E3B4E001C01D92AD307D
:10029000B207E1F711E0CDE2D1E000E006C021971E
:1002A0000109802FFE010E94290ACC32D10780E08B
:1002B0000807A9F70E94E1040C94450A0C94000079
:1002C00096E0899FD0011124AA5BBB4F90967C9346
:1002D0006E935F9791E091969C939197E091B30410
:1002E000F091B4049091B204992339F0309751F011
:1002F000811108C0809162041994309719F05C96BE
:100300008C91FACF08958150823108F05AC0E82FBD
:10031000F0E08827E157FE4F8F4F0C94290AAF0178
:10032000B301A101A701AB01E101B601BC01C0010C
:10033000C601CA01CE01D401D801E101DC01E2010C
:10034000E601809180008F778093800008958091EE
:1003500080008F7DF9CF80918000877FF5CF84B5B5
:100360008F7784BD089584B58F7DFBCF8091B000D9
:100370008F778093B00008958091B0008F7DF9CF82
:10038000809190008F7780939000089580919000E5
:100390008F7DF9CF80919000877FF5CF8091A0006D
:1003A0008F778093A00008958091A0008F7DF9CF72
:1003B0008091A000877FF5CF809120018F77809377
:1003C00020010895809120018F7DF9CF8091200137
:1003D000877FF5CFCF93DF93282F30E0F901EE5ED2
:1003E000FD4F8491F901E453FE4FD491F901EA578E
:1003F000FE4FC491CC23A1F081110E948301EC2F08
:10040000F0E0EE0FFF1FE459FE4FA591B491EC917F
:10041000ED2381E090E009F480E0DF91CF91089531
:1004200080E090E0FACF862F0C94EA011F93CF93DF
:10043000DF93282F30E0F901EE5EFD4F8491F90142
:10044000E453FE4FD491F901EA57FE4FC491CC23F7
:10045000A9F0162F81110E948301EC2FF0E0EE0F1E
:10046000FF1FEE5AFE4FA591B4918FB7F894EC910F
:10047000111108C0D095DE23DC938FBFDF91CF919F
:100480001F910895DE2BF8CF862F642F0C9416024F
:10049000CF93DF9390E0FC01E453FE4F24918A5701
:1004A0009E4FFC0184918823C9F090E0880F991F2A
:1004B000FC01E85CFE4FA591B491FC01EE5AFE4FA1
:1004C000C591D49161110DC09FB7F8948C9120957E
:1004D00082238C938881282328839FBFDF91CF912B
:1004E0000895623051F49FB7F8943C91822F809523
:1004F00083238C93E8812E2BEFCF8FB7F894EC9168
:100500002E2B2C938FBFEACF862F642F0C9448029A
:100510003FB7F8948091350490913604A091370448
:10052000B091380426B5A89B05C02F3F19F001965D
:10053000A11DB11D3FBFBA2FA92F982F8827BC013D
:10054000CD01620F711D811D911D42E0660F771F65
:10055000881F991F4A95D1F708958F929F92AF9265
:10056000BF92CF92DF92EF92FF920E9488024B01DE
:100570005C018AE0C82ED12CE12CF12C0E9488026B
:10058000681979098A099B09683E734081059105BC
:10059000A8F321E0C21AD108E108F10888EE880E1C
:1005A00083E0981EA11CB11CC114D104E104F10424
:1005B00029F7FF90EF90DF90CF90BF90AF909F9082
:1005C0008F9008952FB7F8946091310470913204A0
:1005D00080913304909134042FBF08950F931F939B
:1005E000CF93DF93C82FD62F86E0C89FF001112448
:1005F000EA5BFB4F11A2878D90A181309105F1F04C
:1006000058F082309105F1F1039709F440C0DF9171
:10061000CF911F910F9108956623C9F361E070E0B7
:100620008C2F0E9460010E94E20260939E047093EE
:100630009F048093A0049093A104E9CF0E94E2025A
:1006400000919E0410919F042091A0043091A10478
:10065000AB01BC01401B510B620B730B8091B004CA
:100660009091B104B0E0A0E084179507A607B70702
:1006700048F462E070E08C2FDF91CF911F910F91D1
:100680000C94600163E070E0D111C1CFF4CF70E051
:1006900060E0F1CF01978930910540F4880F991FF0
:1006A000FC01ED50FC4F80819181089580EB93E037
:1006B0000895CF92DF92EF92FF920F931F93CF9303
:1006C000DF931F921F92CDB7DEB769834A83880FED
:1006D000991F00910B0510910C05000F111FE5EB00
:1006E000F4E09F01255B34402017310714F4119288
:1006F000F8CF2981FC01EB54FB4F21838A81808351
:1007000060E0809109050E9416021016110604F59A
:1007100001501109F801EB54FB4FE080D090070520
:10072000C090050588E0F82E6E2D661F6627661FAF
:100730008C2D0E941602EE0C61E08D2D0E94160297
:1007400060E08D2D0E941602FA94F110EDCFDDCFFE
:1007500061E0809109050F900F90DF91CF911F917B
:100760000F91FF90EF90DF90CF900C941602E091E4
:100770000B05F0910C058E179F072CF5683071055D
:1007800011F148305105F8F4E0E8F0E0DF0102C073
:10079000B595A7954A95E2F7AD01FC0133E0EE0F60
:1007A000FF1F3A95E1F7E60FF71FEB54FB4F308937
:1007B000222331F0432B408B6F5F40890C94590307
:1007C00040954323F8CF0895AF92BF92CF92DF9226
:1007D000EF92FF920F931F93CF93DF937C01B62E7E
:1007E000A72E6A0110E000E0CB2DDA2DCC16DD0635
:1007F00044F020E0AE01B801C7010E94B703219682
:10080000F5CF0F5F1F4F0830110571F7DF91CF91C2
:100810001F910F91FF90EF90DF90CF90BF90AF901E
:1008200008956F927F928F929F92AF92BF92CF92D4
:10083000DF92EF92FF920F931F93CF93DF935C01B0
:10084000762E672E4A0185E0E82E84E0F82E10E02F
:1008500000E06701C72DD62D8C169D067CF0F601B1
:10086000819191916F0121E0892B09F420E0AE0183
:10087000B801C5010E94B7032196EECF0F5F1F4F4D
:10088000F4E0EF0EF11C0830110519F7DF91CF915C
:100890001F910F91FF90EF90DF90CF90BF90AF909E
:1008A0009F908F907F906F9008956F927F928F921C
:1008B0009F92AF92BF92CF92DF92EF92FF920F93EF
:1008C0001F93CF93DF935C01742E652E49018B013A
:1008D000F12CE12C6801C72DD62D8C169D067CF0DD
:1008E000F601819191916F0121E0892B09F420E0BB
:1008F000AE01B701C5010E94B7032196EECFFFEF0D
:10090000EF1AFF0A0A5F1F4F88E0E816F10411F79B
:10091000DF91CF911F910F91FF90EF90DF90CF90DB
:10092000BF90AF909F908F907F906F9008951F928F
:100930000F920FB60F9211242F933F938F939F9393
:10094000AF93BF938091310490913204A09133040E
:10095000B09134043091300423E0230F2D3758F543
:100960000196A11DB11D2093300480933104909312
:100970003204A0933304B0933404809135049091F1
:100980003604A0913704B09138040196A11DB11D21
:100990008093350490933604A0933704B0933804C1
:1009A000BF91AF919F918F913F912F910F900FBE6B
:1009B0000F901F90189526E8230F0296A11DB11DD8
:1009C000D2CF789484B5826084BD84B5816084BDC3
:1009D00085B5826085BD85B5816085BD80916E00DD
:1009E000816080936E00109281008091810082600E
:1009F000809381008091810081608093810080914B
:100A000080008160809380008091B1008460809339
:100A1000B1008091B00081608093B000809191001E
:100A20008260809391008091910081608093910019
:100A3000809190008160809390008091A1008260FD
:100A40008093A1008091A10081608093A10080919A
:100A5000A00081608093A00080912101826080933A
:100A600021018091210181608093210180912001E9
:100A700081608093200180917A00846080937A0065
:100A800080917A00826080937A0080917A00816000
:100A900080937A0080917A00806880937A00109227
:100AA000C100D0E0C0E080910B0590910C05C81703
:100AB000D9072CF441E06CE0CE010E9459038091EB
:100AC0000B0590910C05C817D9072CF448E06AE093
:100AD000CE010E9459032196C430D10521F7CAE006
:100AE000D0E05CE3252E312C0E94E2024B015C0138
:100AF00021E02093B2040E94E2020091A20410912E
:100B0000A3042091A4043091A504AB01BC01401BB7
:100B1000510B620B730B8091AE049091AF04B0E067
:100B2000A0E084179507A607B70708F01AC110E0E0
:100B30008091AC04181760F4E091A804F091A90426
:100B4000E10FF11D62E080810E9448021F5FF0CF3B
:100B5000512C8091AD04581608F063C0E52CF12C9F
:100B6000E091AA04F091AB04EE0DFF1D61E08081DD
:100B70000E944802E091AA04F091AB04EE0DFF1D23
:100B800060E080810E94160281E090E0A0E0B0E089
:100B9000052C04C0880F991FAA1FBB1F0A94D2F707
:100BA0003C016C01C094D094412C8091AC04481657
:100BB00008F5042D10E0E091A804F091A904E00FDD
:100BC000F11F80810E94EA010C5F1F4F000F111F6F
:100BD000F801EA5BFB4F892B41F4808191818629E2
:100BE0009729918380834394E0CF808191818C21E8
:100BF0009D21F7CFE091AA04F091AB04EE0DFF1D0B
:100C000061E080810E9416028091AA049091AB0459
:100C1000E80EF91E60E0F70180810E9448025394BB
:100C200098CF36E4C32E34E0D32E8601F801878DA9
:100C300090A1892B31F4148E2FEF3FEF368F258F43
:100C400011A20A5F1F4F34E00238130779F7F12C25
:100C50008091AC04F81608F053C0E12C8F2D90E081
:100C6000880F991FAC01425B5B4F3A012091AD04A4
:100C7000E21608F043C0F301608171810E2C02C0BE
:100C8000769567950A94E2F7F29E900111242E0D55
:100C9000311DE6E4F4E080E0458D568D24173507DC
:100CA00009F44AC28F5F36968A30B1F760FF24C0DC
:100CB000E6E4F4E090E080E0448D411118C0E0915A
:100CC000A604F091A704E20FF31F608146E0489F5D
:100CD000F001499FF00D1124EA5BFB4F648F368FC2
:100CE000258F10A2178E61E00E94EE0205C00196CA
:100CF00036968A30910501F7E394B8CFF394A8CFE4
:100D0000F12CF60181A18111F82EF6E0CF0ED11C55
:100D10000C151D05B1F70E94E2026093A2047093C6
:100D2000A3048093A4049093A504FF20D1F08091A4
:100D300067048823B1F0809165049091660401975F
:100D400081F4F090620423E2F21609F4CBC04AE287
:100D5000F4120AC010924504109244041092430405
:100D600003C01092B204F12C809145048111E6C1B8
:100D700080913F0490914004A0914104B0914204BD
:100D8000A5019401281B390B4A0B5B0BDA01C90141
:100D90000A97A105B10508F49DC080923F04909286
:100DA0004004A0924104B092420480913D0490918D
:100DB0003E040196B1010E94150A9C0190933E04E5
:100DC00080933D04892BE1F4E0913904F0913A04D9
:100DD00080913B0490913C040196B1010E94150A58
:100DE00090933C0480933B04892B51F4CF010196EE
:100DF00068E170E00E94150A90933A0480933904E8
:100E0000C901BE010E94150A8B010E944A0327E016
:100E100030E045E050E0BC0190E080E00E945504E5
:100E2000C8010E944A0322E030E050E040E0BC01EB
:100E300090E080E00E94550480913B0490913C0436
:100E4000BE010E94150A8B010E944A0323E030E094
:100E500041E050E0BC0181E090E00E945504C801EF
:100E60000E944A0326E030E044E050E0BC0182E00A
:100E700090E00E9455048091390490913A04BE019B
:100E80000E94150A8B010E944A0327E030E045E0EA
:100E900050E0BC0183E090E00E945504C8010E942C
:100EA0004A0322E030E050E040E0BC0183E090E003
:100EB0000E94550446E050E065E070E081E090E07B
:100EC0000E94110442E050E061E070E082E090E0B6
:100ED0000E94110480E090E0892B09F405CE0E9465
:100EE000000002CE31E0309345048091430490919C
:100EF00044040196909344048093430435CF023018
:100F00001105A9F580ED8F0D8630C0F48F2D0F2CC3
:100F1000000C990BC0974AE0489F9001499F300D03
:100F2000112480913D0490913E04BE010E94150A57
:100F3000820F931F90933E0480933D0442E050E063
:100F400070E060E090E080E00E94E4030E94AD0267
:100F500080913D0490913E04BE010E94150ACB0190
:100F60000E944A0322E030E050E040E023C1033019
:100F7000110509F045C080ED8F0D8A30C0F48091D5
:100F80003B0490913C04BE010E94150A2AE0269F72
:100F9000C001279F900D11242F2DFF0C330B2053E0
:100FA0003109820F931F90933C0480933B0443E0EC
:100FB00050E061E070E081E090E00E94E4030E9474
:100FC000AD0280913B0490913C04BE010E94150A41
:100FD0000E944A0323E030E041E050E0BC0181E0A0
:100FE00090E00E9455040E94AD020730110509F0FF
:100FF00071CF41E050E050934404409343046ACFE2
:1010000004301105D9F580ED8F0D8630B8F48F2DA1
:10101000FF0C990BC0974AE0489F9001499F300D03
:10102000112480913B0490913C04BE010E94150A5A
:10103000820F931F90933C0480933B0446E050E062
:1010400064E070E082E090E00E94E4030E94AD0260
:1010500080913B0490913C04BE010E94150ACB0193
:101060000E944A0326E030E044E050E0BC0182E008
:1010700090E00E9455040E94AD022CCF053011056E
:1010800009F09FC08091390490913A048431910510
:10109000CCF420ED2F0D2A30A8F4BE010E94150AD1
:1010A0002AE0269FC001279F900D11242F2D0F2C81
:1010B000000C330B20533109820F931F90933A0495
:1010C000809339048091390490913A0484319105D8
:1010D000C4F020ED2F0D2430A0F4BE010E94150AAB
:1010E0002AE0269FC001279F900D11242F2DFF0C71
:1010F000330B20533109820F931F90933A0480934E
:10110000390447E050E065E070E083E090E00E9441
:10111000E4030E94AD028091390490913A04BE012B
:101120000E94150A0E944A0327E030E045E050E0A3
:10113000BC0183E090E09DCF6170D6CD0091430467
:10114000109144040130110509F0D9CE80ED8F0DC6
:101150008A30C8F480913D0490913E04BE010E9403
:10116000150A2AE0269FC001279F900D11242F2DDC
:101170000F2C000C330B20533109820F931F9093D7
:101180003E0480933D0447E050E065E070E090E06D
:1011900080E00E94E4030E94AD0280913D049091A2
:1011A0003E04BE010E94150A0E944A0327E030E077
:1011B00045E050E0BC0190E080E00E9455040E94B0
:1011C000AD020630110509F010CF809139049091DD
:1011D0003A04BE010E94150A85309105B4F020ED55
:1011E0002F0D223090F44F2D0F2C000C550B405337
:1011F00051096AE0649F9001659F300D1124820FB0
:10120000931F90933A04809339048091390490910C
:101210003A04BE010E94150A85309105ACF420ED18
:101220002F0D233088F44F2DFF0C550B40535109DF
:101230006AE0649F9001659F300D1124820F931F17
:1012400090933A048093390442E050E070E060E00B
:1012500083E090E00E94E4030E94AD028091390493
:1012600090913A04BE010E94150ACB010E944A03E4
:1012700022E030E050E040E05BCFEF92FF921F931E
:10128000CF93DF93C4E1D0E0D0930605C09305056A
:1012900083E190E0909308058093070585E190E055
:1012A00090930A058093090584E090E090930C05E3
:1012B00080930B0561E084E10E94480261E0809127
:1012C00007050E94480261E0809109050E944802DA
:1012D00061E0809109050E941602D0930605C09333
:1012E0000505E5ECF4E0119225E0E530F207D9F7C9
:1012F000D0E0C0E080910B0590910C05C817D9078C
:101300000CF041C040E06FE0CE010E945903809193
:101310000B0590910C05C817D9072CF447E06BE03A
:10132000CE010E94590340E069E0CE010E945903BA
:1013300080910B0590910C05C817D907B4F4CE0124
:1013400023E0880F991F2A95E1F7FC01EB53FB4F2F
:101350007F0111E0F70111927F0140E0612FCE0182
:101360000E9459031F5F1930A9F780910B059091D6
:101370000C05C817D9072CF440E06CE0CE010E94A0
:1013800059032196B7CF1092480410924C04109242
:101390004B0410924D0489E294E0909347048093AB
:1013A0004604E2E6F4E08EE994E0108214821382AF
:1013B000158236968E179F07C1F783EE93E09093C0
:1013C000A9048093A80480EE93E09093AB048093EB
:1013D000AA0484E08093AC0483E08093AD0487EE9C
:1013E00093E09093A7048093A6048AE090E0909302
:1013F000AF048093AE0484EF91E09093B1048093A6
:10140000B0041092B4041092B3041092A20410928B
:10141000A3041092A4041092A5041092B204DF91C8
:10142000CF911F91FF90EF90089597FB072E16F430
:10143000009407D077FD09D00E94310A07FC05D03F
:101440003EF4909581959F4F0895709561957F4FDB
:101450000895EE0FFF1F881F8BBF0790F691E02DB8
:101460001994AA1BBB1B51E107C0AA1FBB1FA617DB
:10147000B70710F0A61BB70B881F991F5A95A9F73D
:0E14800080959095BC01CD010895F894FFCFA2
:10148E000100010001000100000001000100000048
:10149E000100010001000100000000000100000039
:1014AE000000010000000000010001000100010029
:1014BE000100010001000100000001000100000018
:1014CE000100010001000100010000000100010007
:1014DE0000000100010000000100010001000100F8
:1014EE0001000100010001000000010001000000E8
:1014FE0001000000000001000000000001000000DB
:10150E0000000100000000000100000000000100CA
:10151E0001000100010001000000010001000000B7
:10152E0000000100010001000100000001000100A7
:10153E000000010001000000010001000100010097
:10154E000100010001000100000000000100000088
:10155E000000010001000100000000000100000079
:10156E000000010000000000010001000100010068
:10157E000100000001000100000001000100000058
:10158E000100010001000100000000000100000048
:10159E00000001000000000001000000000001003A
:1015AE000100010001000000000001000000000029
:1015BE000100010001000100000000000100000018
:1015CE000000010000000000010001000100010008
:1015DE0001000100010000000000010000000000F9
:1015EE0001000100010001000100000000000100E7
:1015FE0000000000010000000000010001000100D9
:10160E0000000000010000000000010000000000CA
:10161E0001000000000001000000000001000000B9
:10162E0000000100000000000100000000000100A9
:10163E000100010001000100000001000100000096
:10164E000100010000000100010000000100010086
:10165E000000010001000000010001000100010076
:10166E003D3C3B3F414345313233343536373839D3
:10167E002A3023800350032003F002C00290026040
:10168E000230020002000000000100010001000112
:10169E000000000000000000000100010001000138
:1016AE00000000000000000000840244021302004B
:00000001FF
