:100000000C9417010C9438010C9438010C943801AD
:100010000C9438010C9438010C9438010C9438017C
:100020000C9438010C9438010C9438010C9438016C
:100030000C9438010C9438010C9438010C9438015C
:100040000C9438010C9438010C9438010C9438014C
:100050000C9438010C9438010C9438010C949902DA
:100060000C9438010C9438010C9438010C9438012C
:100070000C9438010C9438010C9438010C9438011C
:100080000C9438010C9438010C9438010C9438010C
:100090000C9438010C9438010C9438010C943801FC
:1000A0000C9438010C9438010C9438010C943801EC
:1000B0000C9438010C9438010C9438010C943801DC
:1000C0000C9438010C9438010C9438010C943801CC
:1000D0000C9438010C9438010C9438010C943801BC
:1000E0000C9438010C94C7010C94D1010C94A80114
:1000F0000C94AC010C94BF010C94D5010C94C30179
:100100000C94DF010C948E010C9489010C94A401D1
:100110000C94B5010C94AF010C94A0010C94B9019E
:100120000C94CD010C94DB0100000A0B02090C0DAC
:100130000E0807030401000000000000000000009A
:1001400000000000000000000000000000000000AF
:10015000000000001211100000000000000000006C
:10016000000000000000000000000000000000008F
:100170002200250028002B002E003100340002014F
:100180000000050108010B010000210024002700E8
:100190002A002D0030003300010100000401070196
:1001A0000A010505050507050808080802020202FC
:1001B0000A0A080804040404010101010101010103
:1001C0000303030303030303040707070C0C0C0CCE
:1001D0000C0C0C0C020202020606060606060606B7
:1001E0000B0B0B0B0B0B0B0B010210202008081044
:1001F0002040102040800201020108040201010297
:10020000040810204080804020100804020180046F
:1002100002018040201008040201080402010102CA
:10022000040810204080010204081020408011249E
:100230001FBECFEFD1E2DEBFCDBF00E00CBF12E0AA
:10024000A0E0B2E0E4E6F9E000E00BBF02C00790F6
:100250000D92AA30B107D9F722E0AAE0B2E001C0BE
:100260001D92A931B207E1F70E94E3020C94B00499
:100270000C94000090E0FC01E851FE4F24918E5553
:100280009E4FFC018491882399F090E0880F991F7C
:10029000FC01E857FE4FA591B491FC01E259FE4FD5
:1002A000859194918FB7F894EC91E22BEC938FBFEA
:1002B0000895282F30E0F901E85DFE4F9491F9018F
:1002C000E851FE4F44912E553E4FF90124912223CF
:1002D00009F435C0992311F191509231F8F4E92FC6
:1002E000F0E08827E958FE4F8F4F0C948D04A80149
:1002F000AC018901A001A4018E01AF01B501B901D2
:10030000BF01C301C701CD01D1018E01D501DB01C0
:10031000DF01809180008F7780938000E22FF0E0F2
:10032000EE0FFF1FE259FE4FA591B4918FB7F894DD
:10033000EC91611148C040954E234C938FBF0895B6
:10034000809180008F7DE8CF80918000877FE4CF0F
:1003500084B58F7784BDE2CF84B58F7DFBCF80914C
:10036000B0008F778093B000D9CF8091B0008F7D9F
:10037000F9CF809190008F7780939000CFCF8091BC
:1003800090008F7DF9CF80919000877FF5CF80918D
:10039000A0008F778093A000C1CF8091A0008F7DB7
:1003A000F9CF8091A000877FF5CF809120018F77D2
:1003B00080932001B3CF809120018F7DF9CF809170
:1003C0002001877FF5CF4E2BB8CF3FB7F8948091AF
:1003D0000F0290911002A0911102B091120226B565
:1003E000A89B05C02F3F19F00196A11DB11D3FBF6D
:1003F000BA2FA92F982F8827BC01CD01620F711D3C
:10040000811D911D42E0660F771F881F991F4A9535
:10041000D1F70895EF92FF920F931F93CF93C82FB8
:100420007B018A0161E00E94590124EB30E0D70191
:100430000E949504980121503109032E000C440BB1
:10044000550B0E942904D90120EB34E00E94950449
:1004500024EB30E040E050E00E942904205E3C4F55
:100460004F4F5F4F2230310548F0220F331F220FCC
:10047000331F25503109C9010197F1F760E08C2F36
:10048000CF911F910F91FF90EF900C9459010F9312
:100490001F93CF93DF93082F162FD42FC8E06D2F13
:1004A000661F6627661F802F0E945901DD0F61E0DD
:1004B000812F0E94590160E0812F0E945901C15093
:1004C00071F7DF91CF911F910F910895FF920F93D4
:1004D0001F93CF93DF93D62FC42F122F6AE070E0C3
:1004E0000E94790400E06A30710520F460507E4F6C
:1004F000FB010081F12C8A30910520F480509E4F41
:10050000FC01F08060E08C2F0E9459014F2D612F7B
:100510008D2F0E944702402F612F8D2F0E9447028E
:1005200061E08C2FDF91CF911F910F91FF900C9480
:1005300059011F920F920FB60F9211242F933F93E0
:100540008F939F93AF93BF9380910B0290910C0276
:10055000A0910D02B0910E0230910A0223E0230F08
:100560002D3758F50196A11DB11D20930A028093E5
:100570000B0290930C02A0930D02B0930E02809197
:100580000F0290911002A0911102B09112020196F7
:10059000A11DB11D80930F0290931002A093110230
:1005A000B0931202BF91AF919F918F913F912F9184
:1005B0000F900FBE0F901F90189526E8230F0296FC
:1005C000A11DB11DD2CF789484B5826084BD84B55D
:1005D000816084BD85B5826085BD85B5816085BD3E
:1005E00080916E00816080936E00109281008091F6
:1005F000810082608093810080918100816080937E
:100600008100809180008160809380008091B100A2
:1006100084608093B1008091B00081608093B000CD
:10062000809191008260809391008091910081601F
:1006300080939100809190008160809390008091E0
:10064000A10082608093A1008091A10081608093CD
:10065000A1008091A00081608093A0008091210181
:10066000826080932101809121018160809321012A
:100670008091200181608093200180917A008460C4
:1006800080937A0080917A00826080937A008091D2
:100690007A00816080937A0080917A0080688093EC
:1006A0007A001092C1008EE30E943A018BE30E940F
:1006B0003A0186E30E943A018FE30E943A018CE3FB
:1006C0000E943A0187E30E943A0180E40E943A01C5
:1006D0008DE30E943A0188E30E943A0187E20E947A
:1006E0003A010BE91FE090E0E92E90E0F92EC0916D
:1006F0001702D0911802CC33D1050CF04AC02196D4
:10070000D0931802C09317020E94E5012B013C010F
:1007100084E6882E912CA12CB12C0E94E50164194D
:10072000750986099709683E734081059105A8F30C
:1007300021E0821A9108A108B10888EE480E83E0F2
:10074000581E611C711C81149104A104B10429F785
:10075000EC97F9F48091150290911602019690930E
:100760001602809315021092180210921702C4E12B
:10077000D0E061E087E20E945901C8010197F1F7DA
:1007800060E087E20E945901C8010197F1F72197C3
:1007900081F78091150290911602CC9769F48091AF
:1007A0001302909114020196909314028093130205
:1007B0001092160210921502809113029091140269
:1007C0000B9721F41092140210921302C091170299
:1007D000D09118024CE350E0BE0185E090E00E9409
:1007E0000A02A0901502B09016024CE350E0B50149
:1007F00086E090E00E940A0280901302909014021A
:100800004CE050E0B40187E090E00E940A0228E347
:1008100030E047E350E066E370E0C4010E94660206
:100820002DE330E04CE350E06BE370E0C5010E9443
:10083000660220E430E04FE350E06EE370E0CE016A
:100840000E946602E114F10409F451CF0E940000F5
:100850004ECF052E97FB1EF400940E94400457FDD6
:1008600007D00E94480407FC03D04EF40C944004C7
:1008700050954095309521953F4F4F4F5F4F0895CC
:1008800090958095709561957F4F8F4F9F4F0895FC
:10089000A1E21A2EAA1BBB1BFD010DC0AA1FBB1F84
:1008A000EE1FFF1FA217B307E407F50720F0A21BF6
:1008B000B30BE40BF50B661F771F881F991F1A9463
:1008C00069F760957095809590959B01AC01BD018D
:1008D000CF010895A29FB001B39FC001A39F700DE7
:1008E000811D1124911DB29F700D811D1124911D38
:1008F000089597FB072E16F4009407D077FD09D0D2
:100900000E949C0407FC05D03EF4909581959F4F72
:100910000895709561957F4F0895EE0FFF1F881F12
:100920008BBF0790F691E02D19940E946A04B7FFDF
:100930000895821B930B0895AA1BBB1B51E107C0AE
:10094000AA1FBB1FA617B70710F0A61BB70B881F5F
:10095000991F5A95A9F780959095BC01CD010895EE
:04096000F894FFCF39
:0A0964003F065B4F666D7D077F6F55
:00000001FF
