:100000000C945D000C9485000C9485000C94850084
:100010000C9485000C9485000C9485000C9485004C
:100020000C9485000C9485000C9485000C94380287
:100030000C9485000C9485000C9485000C9485002C
:100040000C94EE010C9485000C9485000C948500B2
:100050000C9485000C9485000C9485000C9485000C
:100060000C9485000C94850000000008000201003B
:100070000003040700000000000000000000000072
:10008000250028002B0000000000240027002A0083
:10009000040404040404040402020202020203032E
:1000A0000303030301020408102040800102040836
:1000B00010200102040810202C0411241FBECFEFD1
:1000C000D8E0DEBFCDBF11E0A0E0B1E0ECE6F9E0A2
:1000D00002C005900D92A030B107D9F721E0A0E051
:1000E000B1E001C01D92AE33B207E1F710E0CDE5FB
:1000F000D0E004C02197FE010E94AE04CC35D107A8
:10010000C9F70E940F030C94B4040C94000090E013
:10011000FC01EC55FF4F249180579F4FFC018491C7
:10012000882399F090E0880F991FFC01EA57FF4F50
:10013000A591B491FC01E458FF4F859194918FB73C
:10014000F894EC91E22BEC938FBF08951F93CF931B
:10015000DF93EC01162F88818C3008F04DC0862F7C
:100160000E9487008881282F30E0F901EE0FFF1FE1
:10017000E20FF31FE65EFE4F1F736081607C612B10
:10018000608319821A822CE0622F0E949B04829F56
:10019000B001112430E020E0AB01420F531FFA01FF
:1001A000EE0FFF1FE40FF51FE65EFE4F908196FDF8
:1001B00016C02F5F3F4F2C30310571F781110FC0F2
:1001C0001092800082E0809381001092850010924E
:1001D0008400B19A80916F00826080936F00E88103
:1001E0008E2F90E0FC01EE0FFF1FE80FF91FE65E77
:1001F000FE4F8081806480838881DF91CF911F9141
:10020000089590E0FC01E859FF4F2491FC01EC5562
:10021000FF4F3491FC01E057FF4FE491EE23C9F00A
:10022000222339F0233001F1A8F4213019F12230D2
:1002300029F1F0E0EE0FFF1FE458FF4FA591B491B4
:100240008FB7F894EC91611126C030953E233C9312
:100250008FBF08952730A9F02830C9F0243049F71E
:10026000809180008F7D03C0809180008F77809384
:100270008000DFCF84B58F7784BDDBCF84B58F7DE1
:10028000FBCF8091B0008F778093B000D2CF809168
:10029000B0008F7DF9CF3E2BDACF3FB7F894809135
:1002A000070190910801A0910901B0910A0126B5BA
:1002B000A89B05C02F3F19F00196A11DB11D3FBF9E
:1002C000BA2FA92F982F8827BC01CD01620F711D6D
:1002D000811D911D42E0660F771F881F991F4A9567
:1002E000D1F70895CF92DF92EF92FF92CF93DF93F1
:1002F000EC01603282E07807CCF5653B710514F0C3
:1003000064EB70E0898128E830E0281B310987FD23
:100310003395220F331F220F331F6901330FEE086D
:10032000FF088A8128E532E0281B310987FD3395D3
:10033000220F331F220F331F032E000C440B550BCB
:100340002C193D094E095F09DB0177FF02C0B0E0BF
:10035000A0E00E94620424EB30E040E050E00E9404
:100360003804C20ED31EE41EF51EB601E881EC303F
:1003700070F5298188E890E0821B910927FD93950B
:10038000880F991F880F991F681779077CF02A81B9
:1003900088E592E0821B910927FD9395880F991FAC
:1003A000880F991F681779070CF4CB010297880F03
:1003B000991F4FB7F8942E2F30E0F901EE0FFF1F71
:1003C000E20FF31FE65EFE4F928381834FBFDF9102
:1003D000CF91FF90EF90DF90CF9008951F920F92F2
:1003E0000FB60F9211242F933F938F939F93AF9348
:1003F000BF938091030190910401A0910501B091F8
:1004000006013091020123E0230F2D3758F50196A4
:10041000A11DB11D2093020180930301909304015B
:10042000A0930501B0930601809107019091080106
:10043000A0910901B0910A010196A11DB11D8093FF
:10044000070190930801A0930901B0930A01BF919D
:10045000AF919F918F913F912F910F900FBE0F9071
:100460001F90189526E8230F0296A11DB11DD2CF2B
:100470001F920F920FB60F9211242F933F934F9319
:100480005F936F937F938F939F93AF93BF93CF931C
:10049000DF93EF93FF9380910001C0910101D0E0C1
:1004A00087FF24C010928500109284008091000183
:1004B0008F5F8093000180910001082E000C990B42
:1004C0008C179D0724F4809100018C30C4F1809139
:1004D000840090918500049680349C4908F47AC089
:1004E0008091840090918500049676C080910001EF
:1004F000082E000C990B8C179D07C4F6E0910001A3
:100500008E2FEE0F990BFC01EE0FFF1FE80FF91F66
:10051000E65EFE4F808186FFC9CFE09100018E2FFD
:10052000EE0F990BFC01EE0FFF1FE80FF91FE65EBF
:10053000FE4F808160E08F730E940101B7CF209150
:10054000840030918500E09100018E2FEE0F990B11
:10055000FC01EE0FFF1FE80FF91FE65EFE4F8181E1
:100560009281820F931F9093890080938800E0917D
:1005700000018E2FEE0F990BFC01EE0FFF1FE80F0D
:10058000F91FE65EFE4F808186FF11C0E0910001F9
:100590008E2FEE0F990BFC01EE0FFF1FE80FF91FD6
:1005A000E65EFE4F808161E08F730E940101FF9142
:1005B000EF91DF91CF91BF91AF919F918F917F91FB
:1005C0006F915F914F913F912F910F900FBE0F90C0
:1005D0001F90189580E49CE990938900809388008F
:1005E0008FEF80930001E3CFFC01909101019C30DB
:1005F00098F481E0890F809301019083892F90E026
:10060000FC01EE0FFF1FE80FF91FE65EFE4F88EBBF
:100610009BE09283818308958FEF8083089578947F
:1006200084B5826084BD84B5816084BD85B58260F7
:1006300085BD85B5816085BD80916E0081608093A8
:100640006E00109281008091810082608093810011
:100650008091810081608093810080918000816021
:10066000809380008091B10084608093B10080917C
:10067000B00081608093B00080917A0084608093A4
:100680007A0080917A00826080937A0080917A006B
:10069000816080937A0080917A00806880937A00EC
:1006A0001092C10067E070E081E191E00E94A60035
:1006B00066E070E08EE091E00E94A60065E070E0E8
:1006C0008BE091E00E94A60089E20E9487000BE97E
:1006D0001FE09CE3492E512C612C712C20E0222E2E
:1006E00020E0322EC0911801D0911901CC33D105F0
:1006F0000CF04AC02196D0931901C09318010E94B2
:100700004D014B015C0184E6C82ED12CE12CF12C6B
:100710000E944D01681979098A099B09683E734056
:1007200081059105A8F321E0C21AD108E108F1087A
:1007300088EE880E83E0981EA11CB11CC114D10460
:10074000E104F10429F7EC97F9F4809116019091F6
:1007500017010196909317018093160110921901C9
:1007600010921801C4E1D0E061E089E20E94010129
:10077000C8010197F1F760E089E20E940101C80118
:100780000197F1F7219781F7809116019091170158
:10079000CC9769F480911401909115010196909382
:1007A0001501809314011092170110921601809187
:1007B0001401909115010B9721F4109215011092DC
:1007C0001401A0911401B09115012FE530E00E94B1
:1007D000A7042BE030E040E050E00E943804CA015A
:1007E000B901635D7F4F8F4F9F4F81E191E00E9480
:1007F0007201A0911601B09117012FE530E00E941F
:10080000A704A30192010E943804CA01B901635DE3
:100810007F4F8F4F9F4F8EE091E00E947201A09119
:100820001801B09119012FE530E00E94A704A3013F
:1008300092010E943804CA01B901635D7F4F8F4F56
:100840009F4F8BE091E00E9472012114310409F462
:1008500049CF0E94000046CF81E191E00E94F4025E
:100860008EE091E00E94F4028BE091E00C94F4029F
:10087000052E97FB1EF400940E944F0457FD07D0ED
:100880000E946A0407FC03D04EF40C944F04509568
:100890004095309521953F4F4F4F5F4F089590956C
:1008A0008095709561957F4F8F4F9F4F08950E945F
:1008B0008C04A59F900DB49F900DA49F800D911D59
:1008C00011240895B7FF0C9457040E945704821B0B
:1008D000930B0895A1E21A2EAA1BBB1BFD010DC0AC
:1008E000AA1FBB1FEE1FFF1FA217B307E407F507E0
:1008F00020F0A21BB30BE40BF50B661F771F881FBC
:10090000991F1A9469F760957095809590959B0151
:10091000AC01BD01CF010895A29FB001B39FC001FA
:10092000A39F700D811D1124911DB29F700D811D1B
:100930001124911D0895991B79E004C0991F961701
:1009400008F0961B881F7A95C9F7809508950E9434
:100950008C04B7FF0895821B930B0895EE0FFF1FC1
:0C0960000590F491E02D0994F894FFCF6D
:00000001FF
